:020000040800F2
:10000000D0130020814200084F020008510200086E
:1000100055020008590200085D02000800000000B7
:100020000000000000000000000000006102000865
:100030006302000800000000650200086702000873
:100040009B4200089B4200089B4200089B4200081C
:100050009B4200089B420008176A0008776A000864
:100060009B4200089B4200089B4200089B420008FC
:100070009B4200089B4200089B4200089B420008EC
:100080009B4200089B4200089B4200089B420008DC
:100090009B4200089B4200089B4200089B420008CC
:1000A0009B4200089B4200089B4200089B420008BC
:1000B0006F040008AD0400089B4200089B42000842
:1000C0009B4200089B4200089B4200089B4200089C
:1000D0009B42000851410008B54100089B420008BE
:1000E0009B4200089B4200089B4200089B4200087C
:1000F0009B4200089B4200089B4200089B4200086C
:100100009B4200089B4200089B4200089B4200085B
:100110009B4200089B4200089B4200089B4200084B
:100120009B4200089B4200089B4200089B4200083B
:1001300000F002F800F04AF80AA090E8000C8244AF
:100140008344AAF10107DA4501D100F03FF8AFF28C
:10015000090EBAE80F0013F0010F18BFFB1A43F0A5
:1001600001031847A4AF0000C4AF0000103A24BF39
:1001700078C878C1FAD8520724BF30C830C144BF0C
:1001800004680C607047000000230024002500264E
:10019000103A28BF78C1FBD8520728BF30C148BFEA
:1001A0000B607047662909F06C82642907F02C8384
:1001B000002070471FB507F0A3FE040000200021B7
:1001C00008F0F0FBE0601FBD10B510BD07F098FF10
:1001D0001146FFF7EFFF00F020F807F0B6FF03B479
:1001E000FFF7F2FF03BC03F0FFFE70477047704754
:1001F000704770470A6802F8010B0A6070470000F8
:100200004F637420323020323032330030303600C9
:1002100031383A31313A3134000000F053FB4FF4B9
:10022000E13003F0F0FE00F04CF900F018FA06F0AF
:10023000EBFA06F0FCFA06F025FD322000F012FB86
:1002400002F0E2FE62B601F095FC00BFFEE77047E7
:1002500000BFFEE700BFFEE700BFFEE700BFFEE70E
:1002600070477047704770470CB5002001900090B0
:100270006C48006840F480306A49086000BF6948F3
:10028000006800F4003000900198401C0190009834
:1002900018B90198B0F5A06FF1D16248006800F478
:1002A000003010B10120009001E000200090009883
:1002B000012843D15C48006840F010005A490860AA
:1002C0000846006820F0030008600846006840F017
:1002D0000200086053484068524948600846406838
:1002E00048600846406840F48060486008464068BE
:1002F00020F47C1048600846406840F4E8104860EC
:100300000846006840F08070086000BF45480068FB
:1003100000F000700028F9D04248406820F0030047
:10032000404948600846406840F00200486000BF0D
:100330003C48406800F00C000828F9D10CBD10B50D
:10034000FFF792FF10BD10B53648006840F001007D
:1003500034490860084640683449084031494860DB
:1003600008460068324908402E490860084600687F
:1003700020F4802008600846406820F4FE004860B1
:100380004FF41F008860FFF7DAFF4FF00060294943
:10039000086010BD10B5002100200022214B5B68D1
:1003A00003F00C0121B1042906D0082928D107E067
:1003B000214B224C236027E01F4B204C236023E07D
:1003C000184B5B6803F47010164B5B6803F48032C3
:1003D000022303EB904022B9194B4343174C23608F
:1003E0000DE0104B5B6803F4003323B1144B43431F
:1003F000124C236003E0104B4343104C236003E096
:100400000D4B0E4C236000BF00BF064B5B68C3F36F
:1004100003130C4CE15C094B1B68CB40074C236079
:1004200010BD000000100240002002400000FFF854
:10043000FFFFF6FE08ED00E000127A000000002049
:1004400000093D000400002010B5002807DA0A0763
:10045000140EF74A00F00F031B1FD45403E00A07E1
:10046000130EF44A135410BD70477047704710B50F
:100470000121880705F00FFCB8B10121880705F0BC
:100480001BFCED480068401CEB490860EB48006825
:10049000401CEA490860EA480068401CE8490860D6
:1004A000E8480068401CE749086010BD10B501210C
:1004B000E54805F0F0FB18B10121E34805F0FCFB2D
:1004C00010BD08B50121102004F084FAC020ADF859
:1004D000000003208DF8020010208DF8030069460B
:1004E000DA4803F0BBFF08BDD94908707047D84807
:1004F000007807286FD2DFE800F0040C1E30497343
:1005000008000120D3490860A7E00020D149086015
:10051000A3E0D1480068401CCF490860192809D3DE
:1005200000200860CB48006808B9012000E00020E6
:10053000C849086091E0C8480068401CC649086086
:10054000082809D300200860C248006808B90120C3
:1005500000E00020BF4908607FE0BF480068401C01
:10056000BD49086008460068052803D80120B9493C
:1005700008600AE0B8480068502803D80020B54950
:10058000086002E00020B449086066E0B2480068F4
:10059000401CB149086008460068052803D80120BE
:1005A000AC4908601BE0AC4800680F2803D8002065
:1005B000A849086013E0A8480068192803D801205A
:1005C000A44908600BE0A4480068642804D800200F
:1005D000A049086003E03CE000209F4908603CE03F
:1005E0009D480068401C9C49086008460068052832
:1005F00003D80120974908602AE0974800680F282F
:1006000003D800209349086022E09348006814282A
:1006100003D801208F4908601AE08F4800681E281F
:1006200003D800208B49086012E08B48006823281B
:1006300003D80120874908600AE0874800686E28CF
:1006400003D800208349086002E000208249086046
:1006500003E001207F49086000BF00BF704700B57C
:1006600089B00121084604F0C2F94FF0804004F03F
:1006700019FC4FF0804005F079F84720ADF81800DC
:100680000020ADF81E00ADF81A004FF47A70ADF8F6
:100690001C0000208DF8200006A94FF0804004F0D7
:1006A000D5FC01221146900705F047F801210420EE
:1006B00004F090F90121084604F08CF94020ADF8CF
:1006C000140003208DF8160018208DF8170005A9D6
:1006D000624803F0C3FE0121022004F088F95A4861
:1006E00004F0E0FB584805F041F84720ADF8180049
:1006F0000020ADF81E00ADF81A0040F6C310ADF8AA
:100700001C0000208DF8200006A94F4804F09EFC34
:10071000012211464C4805F010F86020ADF80400A5
:100720000120ADF806000020ADF80C0001A94648F4
:1007300004F0C9FC0821444805F014F94FF47A711B
:10074000414805F077FA0121042004F043F9012122
:10075000084604F03FF94FF48070ADF81400032010
:100760008DF8160018208DF8170005A93B4803F0F6
:1007700075FE0121C80204F02DF9394804F092FBFE
:10078000374804F0F3FF4720ADF818000020ADF81B
:100790001E00ADF81A0040F6C310ADF81C00002092
:1007A0008DF8200006A92E4804F050FC01221146C5
:1007B0002B4804F0C2FF6020ADF804000120ADF822
:1007C00006000020ADF80C0001A9254804F07BFCD0
:1007D0000121234804F0A2FF0821214805F0C2F8B6
:1007E0004FF47A711E4805F025FA0121880704F0BC
:1007F00089FF0121144804F085FF0121184804F005
:1008000081FF1D2000F073F802211D20FFF71CFE60
:100810001D2000F061F81C2000F069F801211C2067
:10082000FFF712FE1C2000F057F809B000BD0000D1
:1008300018ED00E000E400E01400002018000020A3
:100840001C00002020000020000400400010014097
:10085000240000209C0122422800002000080140C2
:10086000002C01400CB500210191009100910EE097
:100870000021019103E000BF0199491C019141F25F
:10088000883201999142F6D30099491C0091009950
:100890008142EDD30CBD0CB5002101910091009176
:1008A0000CE00021019103E000BF0199491C019176
:1008B00001990829F8D30099491C009100998142B7
:1008C000EFD30CBD10B572B64FF4806003F0F8FCA6
:1008D0003220FFF7C7FF10BD00F01F020121914039
:1008E0004209920002F1E022C2F80011704700F0C4
:1008F0001F0201219140024A430942F82310704728
:1009000080E100E01FB5002006F09FF958E00120CB
:1009100008235622002100900A2006F069FA0120DF
:100920000090FE48027808230021122006F060FAA9
:10093000012008232E22002100901A2006F058FAE8
:1009400001200090F548427808230021222006F07B
:100950004FFA012008232E22002100902A2006F0C1
:1009600047FA01200090ED488278082300213220C8
:1009700006F03EFA01200623E94A042100900A20ED
:1009800006F0EAFA01200623E64A052100900A2033
:1009900006F0E2FAE4480168E44808F0F5FC044691
:1009A00001200621E2A20323CDE90032CDE90210A5
:1009B000022322460A2006F08CFB1420FFF752FF88
:1009C00005F096FF0628A2D11FBDF8B505460C46D6
:1009D00017461E46052D2CD2DFE805F0030A131A30
:1009E0002300E0B233463A46022106F08DFD21E0B5
:1009F00004F14001C8B233463A46022106F084FDB4
:100A000018E0E0B233463A46042106F07DFD11E0DD
:100A100004F14001C8B233463A46042106F074FDA1
:100A200008E0E0B206233A461946009606F094FA2A
:100A300000E000BF00BFF8BD21B1012913D0022999
:100A40002FD120E04FF47A72C2815200028240F628
:100A5000C4124281028AC389D21A12B242824FF46E
:100A60007A7282821EE06422C28140F6B83202822B
:100A700040F605524281028AC389D21A12B24282DA
:100A8000642282820EE00022C2814FF47A720282D6
:100A90004281028AC389D21A12B2428232228282EF
:100AA00000E000BF00BF704770B504460D46042D3E
:100AB00017D1B4F90800022801DD02202081208925
:100AC00081B22046FFF7B8FF608981B2994805F0EE
:100AD000AFF8608981B2984805F0AAF8A08A6083CF
:100AE00040E0EDB92089012802D12088208314E05C
:100AF000B4F91200B4F9001048434FF47A71B0FB16
:100B0000F1F0E189084400B22083B4F91800B4F987
:100B10001410884201DAA08A2083208B608321E0B0
:100B2000022D1DD12089012802D1A088E08214E085
:100B3000B4F91200B4F9041048434FF47A71B0FBD1
:100B4000F1F0E189084400B2E082B4F91600B4F98A
:100B50001410884201DAA08AE082E08A608301E012
:100B6000A08A608370BD2DE9F04780460E46154689
:100B70004FF0010A15B14FF0000901E04FF00109F3
:100B8000FCE0BAF1000F5DD04FF0000A022E2BDD21
:100B9000002424E069480078A0420FD0600000EBF8
:100BA0004500C1B266480078204400EB001000EB1D
:100BB00008020123002006F0A7FC0EE0600000EB15
:100BC0004500C1B25E480078204400EB001000EB05
:100BD00008020023184606F097FC601CC4B209F115
:100BE0000300A042D6DC28E0002424E0534800782B
:100BF000A0420FD052480078204400EB001000EBD8
:100C00000802022000EB4400C1B20123002006F0DC
:100C10007BFC0EE04A480078204400EB001000EB1B
:100C20000802022000EB4400C1B20023184606F07F
:100C30006BFC601CC4B2022CD8DB00BF05F058FE70
:100C40000028FBD105F06EFE0746072F2CD10020AF
:100C50003C490880022E1CDD38480078002805DD5C
:100C600036480078401E354908701BE0344800784B
:100C7000002805DD32480078401E3149087011E037
:100C8000C5F103002D490870301F28442C49087015
:100C900008E02A480078002804DD28480078401E33
:100CA000264908704FF0010A082F2ED1002026494E
:100CB0000880022E1DDD09F10200204909788842D2
:100CC00005DD1E480078401C1C4908701BE01C48CC
:100CD0000078C01C4844B04205DA19480078401C2E
:100CE000174908700FE00020154908701349087073
:100CF00009E0701E11490978884204DD0F48007828
:100D0000401C0E4908704FF0010A092F23D10A2018
:100D1000FFF7C1FD0A480078084917E00C020008F7
:100D20000002000810020008A4000020000020417A
:100D30006DA6B80000040040002C01402C000020EB
:100D40002D000020CA000020CC00002009780844B3
:100D5000C0B2BDE8F087012F06D10A20FFF79BFD46
:100D6000FFF7D0FDFF20F4E7062F04D10A20FFF79C
:100D700092FDFF20EDE70420FFF774FD01E77047C7
:100D80007047704770472DE9F04F87B00024A146A7
:100D900000260020F94908700120F9490870002058
:100DA000F8490870F84908700520F8490870F849B2
:100DB000087002F071FC02F011FA002005F045FF06
:100DC00001200823F3A206210090682006F0C4F851
:100DD0000622F149F14806F015FCEF480078FF289B
:100DE00012D1ED480088C0F30720FF280CD14FF442
:100DF000FA70E94908806420488040F2E730888032
:100E00006420C880002008810421E348FFF74CFEDD
:100E10000021E148FFF748FE0221DF48FFF744FECA
:100E20004BE3DF480078002848D0DE4800780A28E5
:100E300041D1DD480078DD490870DB488078DA4927
:100E4000497840EA0120DA490880D748007AD64933
:100E5000C97940EA0120D74908800020D0490870AC
:100E6000D5480068D34909880844D3490860D34865
:100E70000078401CD1490870084600780A281DD126
:100E800000200870CC4800680A21B0FBF1F0CC4982
:100E900008800020C849086001200821CDE9001021
:100EA000C7480088642100FB01F205230621402089
:100EB00006F0A5F802E00020B9490870C1480068B2
:100EC0000A28ADD90020BF4908604846411C01F0FE
:100ED000FF090A2849DD4FF000090EB9012000E0A2
:100EE0000020064686B102F0B9F907460120062126
:100EF000B5A2CDE9000202233A46CDE9021007214E
:100F0000002006F0E6F830E005A906A802F0C0FCD3
:100F1000BDF8180008F0F0F98046AC4908F0D6F8A2
:100F2000074601200821AAA20223CDE90032CDE91B
:100F300002103A460021084606F0CBF8BDF914002D
:100F400008F0C2F98046A34908F0C0F8074601201E
:100F50000821A1A20323CDE90032CDE9021002232A
:100F60003A460021482006F0B4F885480078002869
:100F700076D000208249087098A1994806F01CFD9F
:100F800098A19748113006F017FD97A19448223098
:100F900006F012FD93A19248333006F00DFD93A1A7
:100FA0008F48443006F008FD7B49B1F9000008F095
:100FB0008BF983468E4908F089F8824607F0ECFFEA
:100FC00007463A460B468BA18C4806F0E1FB724877
:100FD000B0F9020000EB8000420089A18748103080
:100FE00006F0D6FB6C49B1F9040008F06DF98346B0
:100FF0007F4908F06BF8824607F0CEFF07463A4675
:101000000B467CA17D48203006F0C2FB6248B0F957
:10101000060000EB8000420079A17848303006F0ED
:10102000B7FB5D48B0F9082077A17448403006F05E
:10103000AFFB002423E076480078A04203D14F485C
:10104000007801280DD173480078204400EB00108F
:1010500063494218012300212046FFF7B6FC0CE04B
:1010600024E06C480078204400EB00105C494218F2
:10107000002319462046FFF7A8FC601CC4B2434871
:1010800000788442D7DB00240CE0624800782044DA
:101090005A4901EB0012012310212046FFF795FC6D
:1010A000601CC4B2394800788442EEDB35480078D1
:1010B000002855D00020334908703749B1F90000A5
:1010C00008F002F983464A4908F000F8824607F022
:1010D00063FF07463A460B4646A1484806F058FBD0
:1010E0002D48B0F9020000EB8000420044A14348C3
:1010F000103006F04DFB2849B1F9040008F0E4F87F
:1011000083463B4907F0E2FF824607F045FF07466A
:101110003A460B4637A13948203006F039FB1E48C5
:10112000B0F9060000EB8000420035A133483030B2
:1011300006F02EFB1848B0F9082033A12F484030A4
:1011400006F026FB334800783149097808442B49DA
:1011500001EB0012002310212D480078FFF735FC29
:1011600005F0E0FB05462846012D6FD0072853D037
:1011700008286CD009286BD10DE100004D0000203B
:101180004E0000204F000020500000204B000020A7
:101190004C00002052504D007201002000F0030866
:1011A000B0000020B1000020E00300202E0000204D
:1011B00030000020320000203800002036000020DF
:1011C000340000201C000020636D48000000C8426D
:1011D0005600000000007A4441000000483A000038
:1011E000D8000020543A00004C3A0000503A000069
:1011F0000000204125342E3166252500D60100202F
:10120000253034646D730000253032640000000026
:101210004800002049000020FE48007860BB002004
:10122000FD490880FD480078002805DDFB4800786E
:10123000401EFA49087018E0F9480078002808DDD7
:10124000F7480078401EF64908700EE094E03BE055
:10125000CEE0F4480078401EF0490870F24800786B
:10126000F0490978401AEE4908700120EF490870EA
:101270000020EF49087026E0EE48E849097830F888
:101280001110E5480088401C081A01B2E948E34AF9
:10129000127820F812100020DF490880E548DF4965
:1012A000097830F91100002805DA0021E148DB4A0D
:1012B000127820F812100120DF490870D748017811
:1012C000DC48FFF7F1FB94E0D248007850BB0020E7
:1012D000DA490880D3480078401ED049097888420E
:1012E00005DDCE480078401CCC49087013E0CC489E
:1012F0000078CC4909780844CB490978884205DA56
:10130000C7480078401CC649087004E00020C44962
:101310000870C24908700120C44908700020C449FF
:10132000087028E0C348BD49097830F81110C34857
:101330000088401C084401B2BE48B84A127820F820
:1013400012100020BD490880BA48B449097830F924
:101350001100B0F57A7F06DB40F2E731B548AF4ABD
:10136000127820F812100120B3490870AB480178B8
:10137000B048FFF799FB3CE0AD48007808B9012080
:1013800000E00020AA4908700120A8490870002048
:10139000A04908702DE0A6480078D0B99D48007893
:1013A00008B9012000E000209A490870084600783A
:1013B000012802D1A049087002E001209B49087071
:1013C0009448007898B1954801789A48FFF76CFBEB
:1013D0000DE09748007808B9012000E0002094490A
:1013E000087001209149087000208A49087000E0C7
:1013F00000BF00BF8748007820B18E4880889049A0
:10140000088002E000208E4908808D48B0F9000075
:1014100040F2E731884202DB084689490880884863
:10142000B0F90000002802DC0020854908808048CF
:10143000007830B37F488089401C00B27D498881A4
:101440000846B0F90C00B1F90210884204DA794874
:10145000008B7849888324E07648B0F9020075490A
:10146000B1F9061008447349B1F90C10884204DD43
:101470007048C08A6F49888313E000206D498881D5
:101480000FE06448007830B100206A49888108463E
:10149000408B888305E00020664988810846808A61
:1014A00088836448808B81B2664804F0C3FB61483E
:1014B000808B81B2644804F0BDFB05F019FA062860
:1014C0007FF4AFAC06225B49604806F0ACF8002020
:1014D00051490880594908805648808A81B2594844
:1014E00004F0A8FB5348808A81B2574804F0A2FB5D
:1014F00007B0BDE8F08F2DE9F04786B081460024A3
:101500000027002600204A4908700120474908703A
:101510000020494908703F4908700420414908707B
:101520004149087002F0B8F801F058FE002005F0BB
:101530008CFB012346A20021162005F0E5FF0120C7
:101540000823AFF2B03206210090682005F004FDB8
:10155000062241493D480C3006F054F83E480078D8
:10156000FF2812D13C480088C0F30720FF280CD187
:1015700040F2E930384908806420488040F2D17058
:1015800088806420C8800120088104213248FFF748
:101590008BFA00213048FFF787FA02212E48FFF727
:1015A00083FAD5E22D4800680A28FAD900202B4991
:1015B00008603846791CCFB20A2874DD00270EB9BE
:1015C000012000E0002006468EB101F047FE804673
:1015D00001200621AFF21042CDE90002022342466B
:1015E000CDE902100721002005F073FD5BE004A99E
:1015F00005A802F04DF9BDF8140007F07DFE824603
:10160000174907F063FD804601200621AFF24042F2
:10161000022327E050000020CA00002048000020DC
:10162000490000204B0000204C0000204E0000200C
:101630004D000020720100204F000020CC0000204F
:101640003C00002000040040002C014000F0030892
:10165000433630B2E2CAD400900100201C000020C2
:101660000000C842CDE90032CDE902104246002117
:10167000502005F02EFDBDF9100007F025FE824632
:10168000FE4907F023FD804601200621AFF2B84253
:101690000323CDE90032CDE902100346424601465C
:1016A000502005F016FDF648007800287AD000207A
:1016B000F3490870AFF2DC41F24806F07DF9AFF271
:1016C000DC41F048113006F077F9AFF2E441ED4823
:1016D000223006F071F9AFF2F441EA48333006F0F7
:1016E0006BF9AFF2F841E748443006F065F9E64897
:1016F000B0F91820E5A1E74806F04AF8E248B0F949
:10170000020000EB80004200AFF20C51E1481030C3
:1017100006F03EF8DC48B0F91620DCA1DD482030A8
:1017200006F036F8D848B0F9060000EB8000420019
:10173000AFF23451D748303006F02AF8D248B0F929
:101740000820AFF23C51D348403006F021F8002485
:1017500022E0D1480078A04203D1D0480078012887
:101760000CD1CF480078204400EB0010C549421846
:10177000012300212046FFF728F90BE0C848007834
:10178000204400EB0010BF494218002319462046B0
:10179000FFF71BF9601CC4B2C24800788442D8DB52
:1017A00000240DE010E0BE4800782044B94901EB68
:1017B0000012012310212046FFF707F9601CC4B274
:1017C000B84800788442EEDBB7480078002840D063
:1017D0000020B5490870AC48B0F91820ABA1AD485D
:1017E00005F0D6FFA848B0F9020000EB80004200E7
:1017F000AFF2F451A748103005F0CAFFA248B0F983
:101800001620A2A1A348203005F0C2FF9E48B0F9DF
:10181000060000EB80004200AFF21C619D483030B2
:1018200005F0B6FF9848B0F90820AFF22461994856
:10183000403005F0ADFF9A48007897490978084490
:10184000944901EB00120023102193480078FFF720
:10185000BCF805F067F805462846012D7DD007281D
:1018600004D0082857D0092878D1BCE08F480078E8
:1018700048BB00208E49088087480078002805DD95
:1018800085480078401E8449087015E08448007837
:10189000002805DD82480078401E814908700BE071
:1018A00080480078401E7C490870824800787D4955
:1018B0000978401A7A49087001207149087000209F
:1018C0007649087026E070487349097830F811109D
:1018D00077480088401C081A00B26B496E4A12789B
:1018E00021F8120000207249088067486A49097887
:1018F00030F91100002805DA00206349664A1278A1
:1019000021F81200012068490870634801785E4898
:10191000FFF7CAF895E06548007860BB002066498B
:10192000088060480078401E5B490978884205DDE0
:1019300059480078401C5849087015E0584800780C
:101940005849097808445B490978884207DA5448BD
:101950000078401C5249087006E035E070E0002035
:101960004F4908704C490870012045490870002013
:101970004A49087027E044484749097830F811106F
:101980004D480088401C084400B23F49424A127842
:1019900021F812000020484908803B483E49097858
:1019A00030F9110040F6B831884204DD36483A4A31
:1019B000127820F8121001203B490870364801784F
:1019C0003148FFF771F83CE03448007808B901204D
:1019D00000E00020314908700120294908700020EA
:1019E000324908702DE02D480078D0B92F48007892
:1019F00008B9012000E000202C4908700846007852
:101A0000012802D12849087002E001201C49087011
:101A10002648007898B1204801781B48FFF744F821
:101A20000DE01E48007808B9012000E000201B49A5
:101A3000087001201249087000201C49087000E05D
:101A400000BF00BF1948007820B10F4880881B49AB
:101A5000088002E00020194908801848B0F9000009
:101A600040F2E731884202DB0846144908801348F7
:101A7000B0F90000002825DC002021E000007A44B5
:101A80004E000020D8000020900100202530346452
:101A900075730000D6010020480000204D00002092
:101AA000490000204B0000204F0000205000002083
:101AB000CA0000204C000020CC0000203C00002088
:101AC000624908806248007830B362488089401CCF
:101AD00000B2604988810846B0F90C00B1F90210E3
:101AE000884204DA5B48008B5A49888324E05948CD
:101AF000B0F902005749B1F9061008445549B1F947
:101B00000C10884204DD5348C08A5249888313E090
:101B10000020504988810FE04F48007830B1002004
:101B20004C4988810846408B888305E0002049495C
:101B300088810846808A88834648808B81B24748DE
:101B400004F078F84348808B81B2454804F072F87D
:101B500004F0CEFE06287FF425AD06223D4941481B
:101B600005F061FD0020404908804049088006B02A
:101B7000BDE8F08700203E4908703E49087064E0E7
:101B80003DA1424805F018FF41A14048113005F041
:101B900013FF44A13D48223005F00EFF46A13B480B
:101BA000333005F009FF49A13848443005F004FFFF
:101BB0004BA13648553005F0FFFE4EA13348663044
:101BC00005F0FAFE50A13148773005F0F5FE53A13B
:101BD0002E48883005F0F0FE002005F036F800228F
:101BE00008212A48FEF7BFFF04460520FEF73AFE0B
:101BF0000520FEF750FE082C25D2DFE804F004088B
:101C00000C1014181C202046FFF7BDF81CE02046DD
:101C1000FFF771FC18E0204601F07EFE14E020463C
:101C200002F03CF910E0204601F02AFB0CE02046CF
:101C300000F07EF808E0204600F090FB04E020462B
:101C400000F097FE00E000BF00BF99E73C000020D5
:101C50004D000020900100205000002000040040B2
:101C6000002C01400CF00308CA000020CC0000202A
:101C70002D0000202C000020313A426C6F776572F5
:101C8000433635546573742000000000D8000020EE
:101C9000323A426C6F776572433630546573742004
:101CA00000000000333A494E4132323654657374B5
:101CB0002020202000000000343A534450383030B7
:101CC000546573742020202000000000353A4272D1
:101CD000616F43616C69627261746520000000008D
:101CE000363A4358442037303534202020202020F5
:101CF00000000000373A424F5245415341204336DD
:101D00003853312000000000383A4E696465632082
:101D1000544630323942202000000000393A546FD6
:101D2000646F6C6973745F54657374200000000005
:101D30002DE9F04F89B000200890824600270590D9
:101D40000224049080468146FD490870FD490870D0
:101D50000120FD4908700020FC4908700420FC495E
:101D60000870FC4908700020FB490880FB490860A6
:101D700001F092FC01F032FA002004F066FF01232A
:101D8000F7A20021084605F0BFFB01200823F7A2B7
:101D900006210090782005F0DFF801200623F4A248
:101DA00007210090002005F0D7F80020F2490860D4
:101DB0004860F248C8600020086148618861F048C6
:101DC000086200204862C862EE4808634863002049
:101DD0008863C86300236207EB49EC4805F096FC72
:101DE00000234FF07E52E849E94805F08FFC9EE25F
:101DF000E848007800287DD0E74800780A287AD1A2
:101E0000E6480078E6490870E4488078E349497874
:101E100040EA0120E3490880E048007ADF49C979B7
:101E200040EA0120E04908600020DA490870DF48F4
:101E3000006808B9012000E00020DC490860DA48A9
:101E4000006807F041FAD14988610A4691695068F3
:101E500007F09AFA8346CD4A9168106807F094FA21
:101E60005946039007F0C4F8C8498860CE48006816
:101E700007F02AFAC64988610A469169506807F056
:101E800083FA8346C24A9168106807F07DFA594682
:101E9000039007F0ADF8BE498860BC49886807F038
:101EA000D7F9C3490860AD4800686043642190FBDE
:101EB000F1FB584607F008FAAF494860BC48006893
:101EC00007F002FA8346AC484168584607F059FBD0
:101ED000A94988600A469168D06807F055FAA64972
:101EE00008610A46D16A506B07F04EFAA24A039085
:101EF000116901E077E072E0106B07F045FA02909B
:101F0000039907F075F883469B484169584607F0E6
:101F10006FF8994948610A46D16B106907F03CFB9C
:101F200083469548816B584607F02EFA924988619E
:101F30000A465169106907F05BF883468E4881694B
:101F4000584607F055F88C49C8610A46116AD069AD
:101F500007F0E6FA02D28848006A0AE0864A516A27
:101F6000D06907F0DDF902D28348406A01E0824877
:101F7000C069814988620A46D169906A07F00CFB02
:101F80007D49C86208460069C863886A07F060F93D
:101F900000B271490880012006210523CDE9001017
:101FA0006D48B0F90020002005F029F878498868CC
:101FB0004FF07C5107F01CF8039007F049F96421B9
:101FC00091FBF4F100FB01FB0120082105235A4697
:101FD000CDE900100621502005F011F8A7E10020FE
:101FE0006C490870A3E173480078002846D0724815
:101FF000007808283ED1714840797049097940EA53
:10200000012600206B4908706C48C0786C49C87084
:1020100008F101001FFA80F86848C078012806D04E
:10202000022809D003280DD0042815D10FE04B4811
:1020300006600120059010E000204849086001205A
:1020400005900AE0012004904FF0650A05E00020A9
:1020500004900120059000E000BF00BF0120062190
:102060000523CDE900103D4807210268002004F057
:10207000C6FF5CE100204F49087058E151480068F4
:102080000A28ABD900204F490860059830B10020DC
:10209000059008224A494C4802F0CDF85046411CB0
:1020A00001F0FF0A19284ADD4FF0000A0FB901209C
:1020B00000E0002007460FB3049800281DD03449E3
:1020C00088684FF07C5106F093FF834607F0C0F814
:1020D0000646642090FBF4F07043000A3B49087107
:1020E000642090FBF4F0704348710822364802F0F7
:1020F000A2F809F101001FFA80F994E006A907A8E7
:1021000001F0C6FBBDF81C0007F0F6F8304903905B
:1021100006F0DCFF8346012008212EA20223CDE930
:102120000032CDE902105A460421002004F0D1FF0C
:10213000BDF9180007F0C8F8274903904EE05FE0AA
:102140008F000020900000209100002092000020CD
:102150008D0000208E0000208800002094000020C8
:1021600043584420373035343A0000005200000014
:102170002D2D2D2D2D000000A0030020CDCC4C3F97
:1021800000C07944CDCC4C3E6F12033D5803002073
:102190007C030020B0000020B1000020E0030020FC
:1021A0007400002076000020780000209801224270
:1021B0007C000020B2000020B3000020A804002012
:1021C000540000201C000020003801405E00002068
:1021D0000000C8425600000000007A4406F076FF76
:1021E000834601200821FEA20323CDE90032CDE978
:1021F000021002235A460421482004F06AFF12E02C
:102200000120062105234246CDE90010282004F0D4
:10221000F6FE0120062105234A46CDE900100721DC
:10222000282004F0ECFE04F07DFB05462846012D35
:102230004DD0072804D0082824D0092853D14CE0D9
:10224000E8480168E848B0F90000401CA1EB4010E4
:10225000E449086008460068002801DA00200860A8
:102260000020E1490880012006210523CDE9001066
:10227000DC4807210268002004F0C1FE0120DB4990
:10228000087031E0D7480168D948B0F90000401C17
:1022900001EB4010D3490860084600684AF6C8714F
:1022A000884202DD0846CF4908600020D0490880F6
:1022B000012006210523CDE90010CA480721026844
:1022C000002004F09CFE0120C84908700CE00020AA
:1022D000C8490870C849087006E00020C549087060
:1022E000C549087000E000BF00BFC448B0F9000055
:1022F00040F2E731884202DB0846C0490880BF4807
:10230000B0F90000002802DC0020BC490880BB486E
:10231000008800F57A7081B2B94803F08BFCB748A9
:10232000008800F57A7081B2B64803F083FC04F0AF
:10233000DFFA06287FF45CAD0020AB490880AC4989
:1023400008804FF47A71AE4803F074FC4FF47A7150
:10235000AC4803F06FFC09B0BDE8F08F2DE9F04FF9
:1023600089B000200890824600270590012404903F
:1023700080468146A44908709E49087001209B4907
:10238000087000209C4908700420A0490870A049EA
:1023900008700020994908809249086001F07CF992
:1023A00000F01CFF002004F050FC012399A2002142
:1023B000084605F0A9F801200823AFF250220621B3
:1023C0000090782004F0C8FD01200623AFF26022BF
:1023D00007210090002004F0BFFD00209149086013
:1023E00048609148C86000200861486188618F4852
:1023F000086200204862C8628D4808634863002074
:102400008863C8630023A2078A498B4805F07EF9D8
:1024100000234FF07E528749884805F077F991E212
:102420008748007800287DD0864800780A287AD12D
:1024300085480078854908708348807882494978C2
:1024400040EA0120824908807F48007A7E49C979A4
:1024500040EA01207F4908600020794908707E48E1
:10246000006808B9012000E000207B490860794835
:10247000006806F029FF704988610A469169506832
:1024800006F082FF83466C4A9168106806F07CFF74
:102490005946039006F0ACFD674988606D480068B6
:1024A00006F012FF654988610A469169506806F096
:1024B0006BFF8346614A9168106806F065FF5946D4
:1024C000039006F095FD5D4988605B49886806F0D9
:1024D000BFFE62490860434800686043642190FB86
:1024E000F1FB584606F0F0FE4E4948605B48006834
:1024F00006F0EAFE83464B484168584607F041F82B
:10250000484988600A469168D06806F03DFF454911
:1025100008610A46D16A506B06F036FF414A0390C3
:10252000116901E0B8E0B3E0106B06F02DFF0290F6
:10253000039906F05DFD83463A484169584606F026
:1025400057FD384948610A46D16B106907F024F8F5
:1025500083463448816B584606F016FF314988613E
:102560000A465169106906F043FD83462D4881698A
:10257000584606F03DFD2B49C8610A46116AD069EC
:1025800006F0CEFF02D22748006A0AE0254A516AC7
:10259000D06906F0C5FE02D22248406A01E0214817
:1025A000C069204988620A46D169906A06F0F4FF42
:1025B0001C49C86208460069C863886A06F048FE7C
:1025C00000B20E490880012006210523CDE9001044
:1025D0000A48B0F90020002004F011FD17493FE03F
:1025E0004100000094000020CA000020910000205B
:1025F000CC000020900000209200002088000020E5
:1026000000040040002C01408F0000208D000020BD
:102610008E000020424F52454153412043363853EB
:10262000313A0000A0030020CDCCCC3F00C079445B
:10263000CDCC4C3E6F12033D580300207C0300209C
:10264000B0000020B1000020E00300207400002052
:102650007600002078000020980122427C000020B3
:1026600088684FF07C5106F0C3FC039006F0F0FD43
:10267000642191FBF4F100FB01FB012008210523FB
:102680005A46CDE900100621502004F0B8FC59E16B
:102690000020F649087055E1F5480078002846D03A
:1026A000F448007808283ED1F3484079F249097986
:1026B00040EA01260020EE490870EF48C078EF4953
:1026C000C87008F101001FFA80F8EB48C0780128B3
:1026D00006D0022809D003280DD0042815D10FE018
:1026E000E74806600120059010E00020E4490860FA
:1026F000012005900AE0012004904FF0650A05E0F2
:10270000002004900120059000E000BF00BF0120E0
:1027100006210523CDE90010D948072102680020D1
:1027200004F06DFC0EE10020D14908700AE1D548A3
:1027300000680A28ABD90020D2490860059830B15A
:10274000002005900822CD49CF4801F074FD504685
:10275000411C01F0FF0A19285DDD4FF0000A0FB996
:10276000012000E0002007460FB30498002865D040
:10277000C64988684FF07C5106F03AFC834606F063
:1027800067FD0646642090FBF4F07043000AC049E0
:102790000871642090FBF4F0704348710822BA4835
:1027A00001F049FD09F101001FFA80F946E006A990
:1027B00007A801F06DF8BDF81C0006F09DFDB549B5
:1027C000039006F083FC834601200821AFF2FC52FF
:1027D0000223CDE90032CDE902105A46042100203F
:1027E00004F077FCBDF9180006F06EFDAA490390CD
:1027F00006F06CFC834601200821AFF21C22032363
:10280000CDE90032CDE9021002235A4604214820C6
:1028100004F05FFC12E00120062105234246CDE9C9
:102820000010282004F0EBFB0120062105234A4676
:10283000CDE900100721282004F0E1FB04F072F834
:1028400005462846012D4DD0072804D0082824D05D
:10285000092853D14CE08A4801689048B0F900003B
:10286000401CA1EB4010864908600846006800281B
:1028700001DA002008600020884908800120062134
:102880000523CDE900107E4807210268002004F0EE
:10289000B6FB01208249087031E07948016881481F
:1028A000B0F90000401C01EB401075490860084673
:1028B00000684AF6C871884202DD0846704908601F
:1028C000002078490880012006210523CDE9001069
:1028D0006B4807210268002004F091FB0120704939
:1028E00008700CE00020704908707049087006E01C
:1028F00000206D4908706D49087000E000BF00BFFE
:102900006B48B0F9000040F2E731884202DB08462C
:10291000674908806648B0F90000002802DC002002
:10292000634908806248008800F57A7081B2614886
:1029300003F080F95E48008800F57A7081B25E4845
:1029400003F078F903F0D4FF06287FF469AD002086
:1029500052490880534908804FF47A71554803F072
:1029600069F94FF47A71544803F064F909B0BDE88D
:10297000F08F2DE9F04F89B00020089082460027A3
:10298000059002240490804681464C4908704649CF
:102990000870012042490870002044490870042052
:1029A0004749087047490870002041490880344968
:1029B000086000F071FE00F011FC002004F045F901
:1029C000012341A20021084604F09EFD01200823B6
:1029D00041A206210090782004F0BEFA00203F4971
:1029E000086048603E48C86000200861486188610E
:1029F0003C48086200204862C8623B48086348635C
:102A000000208863C863002362073849384804F00F
:102A10007DFE00234FF07E5234491C4804F076FEC0
:102A2000CCE212480078002870D0324800780A289A
:102A30006DD131480078314908702F4880782E498F
:102A4000497840EA01202E4908802B48007A2A491B
:102A5000C97940EA01202B49086000200349087029
:102A60002948006808B9012053E051E0B000002077
:102A7000B2000020B3000020A80400205400002071
:102A8000940000201C000020003801407C0300203E
:102A90005E0000200000C84200007A44CA00002006
:102AA00091000020CC000020900000209200002027
:102AB0008800002000040040002C01408F0000200E
:102AC0008D0000208E0000204E696465632054460E
:102AD000303239423A00000052504D00A00300202D
:102AE0009A99193F00C07944CDCCCC3D6F12033D7B
:102AF00058030020B1000020E003002074000020F3
:102B0000760000207800002098012242D4E0CFE037
:102B10000020FC490860FC48006806F0D5FBFB4932
:102B200088610A469169506806F02EFC8346F74A90
:102B30009168106806F028FC5946039006F058FA90
:102B4000F2498860F048006806F0BEFBF0498861F1
:102B50000A469169506806F017FC8346EC4A916872
:102B6000106806F011FC5946039006F041FAE84956
:102B70008860E649886806F06BFBE6490860E6482D
:102B800000686043642190FBF1FB584606F09CFB13
:102B9000E2494860DF48006806F096FB8346DF485C
:102BA0004168584606F0EDFCDC4988600A469168A9
:102BB000D06806F0E9FBD94908610A46D16A506B32
:102BC00006F0E2FBD54A03901169106B06F0DCFBBE
:102BD0000290039906F00CFA8346D04841695846A2
:102BE00006F006FACD4948610A46D16B106906F035
:102BF000D3FC8346C948816B584606F0C5FBC749DC
:102C000088610A465169106906F0F2F98346C348A3
:102C10008169584606F0ECF9C049C8610A46116A54
:102C2000D06906F07DFC02D2BC48006A0AE0BB4ACB
:102C3000516AD06906F074FB02D2B848406A01E0DC
:102C4000B648C069B54988620A46D169906A06F0FB
:102C5000A3FCB249C86208460069C863886A06F0E6
:102C6000F7FA00B2AE490880012006210523CDE91C
:102C70000010AB48B0F90020002004F0C0F9A449CE
:102C800088684FF07C5106F0B3F9039006F0E0FA43
:102C9000642191FBF4F100FB01FB012006210523D7
:102CA0005A46CDE900100721002004F0A8F985E17B
:102CB00000209C49087081E19B480078002846D09C
:102CC0009A48007808283ED199484079984909796E
:102CD00040EA01260020944908709548C07895493B
:102CE000C87008F101001FFA80F89148C0780128E7
:102CF00006D0022809D003280DD0042815D10FE0F2
:102D0000854806600120059010E000208249086097
:102D1000012005900AE0012004904FF0650A05E0CB
:102D2000002004900120059000E000BF00BF0120BA
:102D300008210523CDE900107748062102685020BC
:102D400004F05DF93AE100207749087036E17A48ED
:102D500000680A28ABD9002077490860059830B18F
:102D60000020059008227349744801F064FA504627
:102D7000411C01F0FF0A19285DDD4FF0000A0FB970
:102D8000012000E0002007460FB30498002865D01A
:102D90005F4988684FF07C5106F02AF9834606F0B7
:102DA00057FA0646642090FBF4F07043000A644929
:102DB0000871642090FBF4F07043487108225F486A
:102DC00001F039FA09F101001FFA80F946E006A97D
:102DD00007A800F05DFDBDF81C0006F08DFA59490A
:102DE000039006F073F9834601200821AFF61C42D8
:102DF0000223CDE90032CDE902105A460421002019
:102E000004F067F9BDF9180006F05EFA4E49039028
:102E100006F05CF9834601200821AFF63C0203234B
:102E2000CDE90032CDE9021002235A4604214820A0
:102E300004F04FF912E00120062105234246CDE9B6
:102E40000010282004F0DBF80120062105234A4663
:102E5000CDE900100721282004F0D1F803F062FD2D
:102E600005462846012D79D0072804D0082824D00B
:102E700009287FD178E0284801683448B0F900007B
:102E8000401CA1EB40102449086008460068002857
:102E900001DA0020086000202C4908800120082168
:102EA0000523CDE900101C4806210268502004F0DB
:102EB000A6F80120264908705DE0174801682548FA
:102EC000B0F90000401C01EB4010134908600846AF
:102ED00000684CF25031884202DD08460E49086015
:102EE00000201C490880012008210523CDE900109D
:102EF000094806210268502004F081F80120144995
:102F0000087038E098012242780000205803002021
:102F10007C0300207C00002094000020A0030020FF
:102F200088000020B0000020B2000020B300002084
:102F3000A8040020540000201C000020003801409C
:102F40005E0000200000C84200007A44CA00002051
:102F500091000020CC00002000E00BE0002023497D
:102F600008702349087006E00020204908702049B5
:102F7000087000E000BF00BF1E48B0F9000040F23A
:102F8000E731884202DB08461A4908801948B0F93F
:102F90000000002802DC002016490880154800883F
:102FA00000F57A7081B2144802F044FE114800889E
:102FB00000F57A7081B2114802F03CFE03F098FCF3
:102FC00006287FF42EAD00200D4908800D490880A9
:102FD0004FF47A71084802F02DFE4FF47A710748D9
:102FE00002F028FE09B0BDE8F08F0000900000203C
:102FF000920000208800002000040040002C0140C6
:10300000CA000020CC00002000B587B001214FF499
:10301000836001F0DFFC4FF4404001F03FFC0120F1
:10302000ADF8040000208DF8070001A9D74801F091
:1030300015FA2020ADF8040000208DF8070001A942
:10304000D34801F00BFAD34802F0C8FE00200290EA
:103050008DF80C008DF80D004FF4602004900020D6
:10306000059001208DF8180002A9CA4802F0DDFE83
:103070000121C84802F005FFC64802F024FF00BF46
:10308000C44802F025FF0028FAD1C24802F02AFF06
:1030900000BFC04802F02BFF0028FAD1072301220D
:1030A0000F21BC4802F059FF07B000BD2DE9F041E7
:1030B00004460026002517E00121B64802F021FF52
:1030C00000BF0221B34803F08DF80028F9D0B148C1
:1030D00002F0AAFF804606F00FF90746314605F0D8
:1030E00087FF0646681CC5B20A2DE5DDAA493046B1
:1030F00005F07EFF0746A94905F0E8FF0646304681
:1031000006F0A6F800B22080BDE8F0812DE9FC5F52
:103110000546A3480088A84202DAA248BDE8FC9F01
:103120009F48B0F85200A84202DB40F2DC50F5E7BD
:10313000002439E09A4830F81400A84232DB98495C
:10314000601C31F81000A8422CDA31F814200B462C
:10315000611C33F81110501A06F0B6F883469049F6
:1031600031F81410481B06F0AFF85946009005F0EE
:10317000ADFF82468C4906F007F9814604EB8401D5
:10318000A1F1370006F0A0F84946019005F030FFA4
:103190008046864906F0F8F8074606F059F806B268
:1031A0003046BBE7601C44B2292CC3DB00BFFEE7FE
:1031B0002DE9F0410446204606F086F807467C4893
:1031C0000168384606F0E0F806467A48016830465D
:1031D00005F00EFF05462846BDE8F0812DE9F843CD
:1031E00000250020744908806846FFF75FFF6846A5
:1031F000FFF75CFF6846FFF759FF6846FFF756FF89
:103200006846FFF753FF6846FFF750FF6846FFF731
:103210004DFF6846FFF74AFF00240AE06846FFF7C3
:1032200045FFBDF9000005440A20FDF71BFB601CAB
:1032300044B20A2CF2DB284606F05EF880465A4972
:1032400005F0D6FE0746594905F040FF064605F051
:10325000FFFF00B258490880BDE8F88338B56846DA
:10326000FFF724FFBDF8000053490988401A00B257
:103270000090BDF90000FFF79BFF0446204638BDD3
:1032800070B586B006460024002003F0DEFC012065
:1032900006234AA219460090002003F05DFE01209B
:1032A000062348A207210090002003F055FE0123C9
:1032B00045A20621322004F027F901223E49444864
:1032C00004F0A0F93C480078FF2807D13A4800886C
:1032D000C0F30720FF2801D1FFF780FF012006215E
:1032E0000423CDE900103448B0F90020182003F081
:1032F00086FE3FE0374800680A283BD90020354960
:1033000008602046611CCCB20A281DDD002405A8F7
:10331000FFF7CCFE012006210423CDE90010BDF902
:1033200014200721182003F06AFEFFF797FF0546D7
:103330000120062128A2CDE9000202232A46CDE978
:103340000210562003F0C5FE03F0D2FA022811D174
:10335000FFF744FF012006210423CDE900101648A1
:10336000B0F90020182003F04AFE01221249184843
:1033700004F059F903F0BCFA0628BBD10020174924
:1033800008801749088006B070BD0000000C01409D
:1033900000100140002801400000B0400000304112
:1033A00086960008DAFDFFFF0000A04000002041E3
:1033B0009C000020A00000209800002043616C6960
:1033C0000000000052617700D1B9C1A63A000000A8
:1033D00012F003081C000020636D4800CA000020A2
:1033E000CC000020002002E000BF411CC8B20A2827
:1033F000FADB704710B50120FE490860FE49C1F8AC
:10340000AC01FFF7EFFF10BD10B50120F949091D10
:103410000860F949C1F8A801FFF7E4FF0020F54969
:10342000091D0860FFF7DEFF0020F349C1F8A8017D
:1034300010BD10B50020EF49091D08600120EE49BC
:10344000C1F8A801FFF7CEFF0120EA49091D086075
:10345000FFF7C8FF10BD10B50024E848006820F44D
:103460007040E64908600846006840F40040086083
:103470000120E049091D0860FFF7B4FF0120DE4983
:10348000C1F8A80103E0601CC4B2FFF7ABFFD94844
:103490007C38006808B1052CF5D30020D5490860B8
:1034A000D648006820F47040D44908600846006897
:1034B00040F440500860204610BD10B50446012C71
:1034C00011D10020CB49091D0860CC48006820F4C8
:1034D0007040CA4908600846006840F440500860DF
:1034E000FFF780FF10E00120C249091D0860C348B2
:1034F000006820F47040C14908600846006840F444
:1035000040500860FFF76EFF0120BA490860FFF7DE
:1035100069FF0020B849C1F8A80110BD70B5044684
:10352000254600261AE005F0800020B10120B149AF
:10353000091D086003E00020AE49091D0860FFF77F
:1035400051FF0120AB490860FFF74CFF6806050EEC
:103550000020A949C1F8A801701CC6B2082EE2DB00
:10356000FFF779FF70BD70B50646A448006820F4E7
:103570007040A24908600846006840F400400860B6
:1035800001209C49091D0860FFF72CFF002513E06E
:103590006006040E012097490860FFF723FF964854
:1035A000D0F82C0108B144F00104002091490860D2
:1035B000FFF718FF681CC5B2082DE9DB3046FFF79E
:1035C0007CFF204670BD70B506460C461546FFF7D9
:1035D0001BFF3046FFF7A2FF2046FFF79FFF28465C
:1035E000FFF79CFFFFF725FF70BD70B504460D4641
:1035F000FFF70AFF2046FFF791FF2846FFF78EFFEF
:10360000FFF702FF611CC8B2FFF788FF0020FFF739
:10361000AAFF70BD70B504460025FFF7F5FE8020B7
:10362000FFF77CFF0520FFF779FF25122846FFF7FB
:1036300075FFE5B22846FFF771FFFFF7FAFE70BD90
:103640002DE9F041044600256D49204605F09CFE19
:10365000074639466B4805F039FD064605F014FE6D
:1036600085B22846FFF7D6FFBDE8F08170B5044665
:103670000025FFF7C9FE8020FFF750FF0020FFF76D
:103680004DFF25122846FFF749FFE5B22846FFF710
:1036900045FFFFF7CEFE70BD38B50121082001F0CF
:1036A00099F94FF44060ADF8000003208DF8020056
:1036B00010208DF8030069465048001F00F0CEFE30
:1036C000FFF798FE44F62730FFF7D0FF02224E495D
:1036D0004E4803F097FF4C480078FF2803D14A4832
:1036E0004078FF2809D04849086805F055FC044691
:1036F0000022134605F002FB02D14548424908600A
:1037000041490868FFF79CFF38BD2DE9F047FFF7F6
:103710007BFE8020FFF702FF0120FFF7FFFEFFF78F
:1037200073FE8120FFF7FAFE0120FFF71CFF82469F
:103730004FF6FF7000EA0A2A0020FFF714FF40EA64
:103740000A0AFFF776FE504605F014FB06460022F3
:10375000304B05F023FB044600222F4B05F076F991
:10376000804605F035F9BDE8F0872DE9F047FFF711
:103770004BFE8020FFF7D2FE0220FFF7CFFEFFF7BF
:1037800043FE8120FFF7CAFE0120FFF7ECFE8246D0
:103790004FF6FF7000EA0A2A0020FFF7E4FE40EA35
:1037A0000A0AFFF746FE504605F0E4FA06460022F4
:1037B0001A4B05F0F3FA04460022174B05F046F9C0
:1037C000804605F005F9BDE8F08770B5FFF71CFEEF
:1037D0008020FFF7A3FE0320FFF7A0FEFFF714FEF3
:1037E0008120FFF79BFE0120FFF7BDFE04464FF648
:1037F000FF7015E0A881214200802142040C0140A5
:10380000000020410000A045A40000200EF00308A5
:10381000E926813F0000044000408F400000F43F53
:1038200000EA04240020FFF79EFE0443FFF701FE98
:1038300004EBC40000EB04104FF47A7190FBF1F537
:10384000284605F041FD70BD70B5FFF7DDFD802015
:10385000FFF764FE0420FFF761FEFFF7D5FD81202E
:10386000FFF75CFE0120FFF77EFE04464FF6FF7077
:1038700000EA04240020FFF776FE0443FFF7D9FD99
:103880004FF47A7094FBF0F5284605F01DFD70BDED
:1038900070B504460D46FFF7B7FD8020FFF73EFEEA
:1038A0000220FFF73BFEFFF7AFFD8120FFF736FE5A
:1038B0000120FFF758FE208020884FF6FF7101EAB3
:1038C000002020800020FFF74EFE21880843208042
:1038D000FFF7AFFD2088C0102080FFF795FD802006
:1038E000FFF71CFE0420FFF719FEFFF78DFD812076
:1038F000FFF714FE0120FFF736FE2880287800022B
:1039000000B228800020FFF72EFEB5F90010084312
:103910002880FFF78EFD70BD2DE9F04186B0074687
:103920000025002003F091F9FFF7B6FE01200823DF
:1039300080A202210090002003F00EFB012008214C
:1039400000220423CDE90032CDE902107C48022395
:1039500019460268482003F0BCFBDEE079480068A5
:103960000A28FAD90020774908602846691CCDB298
:103970000F2831DD002504A905A8FFF789FFBDF850
:10398000140005F0B9FC80466F4905F09FFB064620
:10399000012008216DA20223CDE90032CDE90210F9
:1039A00032460021084603F094FBBDF9100005F0F3
:1039B0008BFC8046664905F089FB064601200821FC
:1039C00064A20323CDE90032CDE90210022332467E
:1039D0000021482003F07DFB5F48007878B100208B
:1039E0005D49087008210423CDE90030CDE90210BB
:1039F0005348022319460268482003F06AFB02F08C
:103A000091FF04462046072C04D0082834D009280A
:103A10007AD15AE05148007818B9002050490880FE
:103A200029E0474908684F4905F0AEFC4449086061
:103A30004B48B0F90000401C05F046FC06464048E3
:103A40000168304605F09DFD3D4908600868002189
:103A500005F066FC02D20020394908603849086840
:103A6000404905F033FB3649086000203C49088096
:103A70000120394908704FE03848007818B9002013
:103A80003949088020E02E490868364905F07CFC59
:103A90002B4908603448B0F90000401C05F014FCC4
:103AA000064627480168304605F0A2FA2449086016
:103AB00008682C4905F00AFB2149086000202A49C2
:103AC000088001202449087026E024480078E0B1ED
:103AD00002221B49254803F0A6FD012008210022EF
:103AE0000423CDE90032CDE902101548022319461E
:103AF0000268482003F0EDFA0020184908701049C8
:103B00000868FFF79DFD05E005E0012012490870F7
:103B10001249087000E000BF00BF02F0E9FE06286D
:103B20007FF41CAF00200E4908800F49088006B0C2
:103B3000BDE8F08143616C6962496E640000000079
:103B4000A40000201C0000200000C8425600000015
:103B500000007A4441000000A9000020AA000020D3
:103B6000CA00002000401C46CC0000200EF00308D4
:103B7000002002E000BF411CC8B20A28FADB7047EF
:103B800010B50120FE490860FE49C1F89C01FFF70D
:103B9000EFFF10BD10B50120F949091D0860F94972
:103BA000C1F89801FFF7E4FF0020F549091D0860FE
:103BB000FFF7DEFF0020F349C1F8980110BD10B5F2
:103BC0000020EF49091D08600120EE49C1F8980165
:103BD000FFF7CEFF0120EA49091D0860FFF7C8FF83
:103BE00010BD10B50024E848006820F07040E64998
:103BF00008600846006840F0004008600120E04985
:103C0000091D0860FFF7B4FF0120DE49C1F89801E3
:103C100003E0601CC4B2FFF7ABFFD9487C380068F2
:103C200008B1052CF5D30020D5490860D6480068B6
:103C300020F07040D44908600846006840F04050C9
:103C40000860204610BD10B50446012C11D100209B
:103C5000CB49091D0860CC48006820F07040CA4973
:103C600008600846006840F040500860FFF780FF99
:103C700010E00120C249091D0860C348006820F017
:103C80007040C14908600846006840F04050086034
:103C9000FFF76EFF0120BA490860FFF769FF0020B7
:103CA000B849C1F8980110BD70B5044625460026F4
:103CB0001AE005F0800020B10120B149091D08601B
:103CC00003E00020AE49091D0860FFF751FF012005
:103CD000AB490860FFF74CFF6806050E0020A949B4
:103CE000C1F89801701CC6B2082EE2DBFFF779FF1D
:103CF00070BD70B50646A448006820F07040A24927
:103D000008600846006840F00040086001209C49B7
:103D1000091D0860FFF72CFF002513E06006040E64
:103D2000012097490860FFF723FF9648D0F81C014F
:103D300008B144F00104002091490860FFF718FF22
:103D4000681CC5B2082DE9DB3046FFF77CFF204632
:103D500070BD70B506460C461546FFF71BFF304692
:103D6000FFF7A2FF2046FFF79FFF2846FFF79CFFC3
:103D7000FFF725FF70BD70B504460D46FFF70AFF3B
:103D80002046FFF791FF2846FFF78EFFFFF702FF5F
:103D9000611CC8B2FFF788FF0020FFF7AAFF70BDC3
:103DA00030B502460B46FF2012E012F8014B60408E
:103DB00008210BE000F0800424B1312484EA40049F
:103DC000E0B201E04406200E4C1EE1B20029F1DC15
:103DD0001C1EA3F10105EBB2E7D130BD10B50446BE
:103DE000FFF7D8FE4A20FFF75FFF2012FFF75CFFC6
:103DF000E0B2FFF759FFFFF7E2FE10BD38B5FFF75D
:103E0000C9FE4B20FFF750FF0120FFF772FF8DF82E
:103E100000000120FFF76DFF8DF801000020FFF783
:103E200068FF8DF80200FFF7CAFE9DF801009DF8BB
:103E3000001000EB012004B2204638BD70B50446E6
:103E4000FFF7A8FE4B20FFF72FFF002506E001201B
:103E5000FFF74FFF2070641C681C05B2082DF6DBCD
:103E60000020FFF746FF2070FFF7A9FE70BD08B5E0
:103E70000121082000F0AEFDC020ADF800000320B5
:103E80008DF8020010208DF8030069463E4800F0CE
:103E9000E5FA43F21560FFF7A1FF08BD2DE9F041F7
:103EA00086B0804600270026002002F0CEFE0123C7
:103EB00036A20021084603F027FB012335A2022188
:103EC000002003F021FB012334A20421002003F091
:103ED0001BFBFFF7CCFF6420FCF7C4FC03A8FFF733
:103EE000ADFF022103A8FFF75BFF9DF80E1088428B
:103EF00006D19DF80D009DF80C1000EB012006B2D4
:103F00000120082105233246CDE900100421282094
:103F100003F075F802210DF10F00FFF741FF9DF846
:103F20001110884206D19DF810009DF80F1000EB8B
:103F3000012004B20120082105232246CDE900100A
:103F40000021282003F05BF802210DF11200FFF799
:103F500027FF9DF81410884206D19DF813009DF8A4
:103F6000121000EB012005B20120082105232A468A
:103F7000CDE900100221382003F041F82CE00000C8
:103F80009881214200802142000C0140CEC2B6C877
:103F90003A00000053636C4663743A00D1B9C1A67D
:103FA0003A0000000620FFF719FF1420FCF75AFC26
:103FB00043F21560FFF712FF6420FCF753FCFFF794
:103FC0001DFF06460120082105233246CDE90010D9
:103FD0000421282003F013F802F08AFC0628E1D11E
:103FE00006B0BDE8F0810000014600BF704700BF89
:103FF000984A128802F04002002AF9D0C2B2954BCA
:104000001B1D1A80704710B586B00446012104209C
:1040100000F0E0FC0121880300F0DCFC4FF40070AC
:10402000ADF8140003208DF8160018208DF8170045
:1040300005A9894800F012FA4FF48060ADF8140029
:1040400048208DF8170005A9834800F007FA2520BD
:104050008DF8000003208DF801008DF8020001208A
:104060008DF80300684600F030F94FF49640019057
:104070000020ADF80800ADF80A00ADF80C00ADF86E
:1040800010000C20ADF80E0001A9744800F049FDA5
:10409000012240F22551714800F0DBFD002240F280
:1040A00024416E4800F0D5FD01216C4800F0C5FDAB
:1040B0000121042000F08EFC0121480400F097FC4F
:1040C0000420ADF8140003208DF8160018208DF898
:1040D000170005A9604800F0C1F90820ADF81400E8
:1040E00048208DF8170005A95B4800F0B7F9262095
:1040F0008DF8000003208DF801008DF802000120EA
:104100008DF80300684600F0E0F801940020ADF857
:104110000800ADF80A00ADF80C00ADF810000C2056
:10412000ADF80E0001A94B4800F0FBFC012240F263
:104130002551484800F08DFD002240F224414548B9
:1041400000F087FD0121434800F077FD06B010BD67
:1041500010B54248008800F0080020B13F49091D11
:104160000988C8B200BF40F225513C4800F056FE15
:10417000F8B13A4800F0D2FDC4B239480078A8B985
:1041800038480068052802D90020374908703648A9
:1041900001780078401C344A10703448445410466A
:1041A0000078082802D101202D49087000202D49EF
:1041B000086010BD10B52748008800F0080020B145
:1041C0002449091D0988C8B200BF40F22551214881
:1041D00000F024FEF8B11F4800F0A0FDC4B224484E
:1041E0000078A8B923480068052802D90020224990
:1041F0000870214801780078401C1F4A10701F4841
:104200004454104600780A2802D101201849087049
:1042100000201849086010BD70B504460D4600BF67
:104220008021204600F0E4FD0028F9D029462046F0
:1042300000F070FD70BD70B506460C46154604E0F2
:1042400014F8011B3046FFF7E7FF281EA5F1010512
:10425000F6D170BD00440040000801400038014024
:10426000B200002018000020B3000020A8040020A5
:10427000B000002014000020B1000020E003002066
:104280000948804709480047FEE7FEE7FEE7FEE7EA
:10429000FEE7FEE7FEE7FEE7FEE7FEE70448054926
:1042A000054A064B7047000047030008310100082B
:1042B000D00D0020D0130020D00F0020D00F002000
:1042C00031490143314A1160704770B50021002324
:1042D0000F22C47804B32D4C246804F4E064C4F5C0
:1042E000E064210AC1F10403CA40447804FA03F1EE
:1042F0008478144021430901254C0678A15504789F
:1043000004F01F050124AC4005786D11AD0005F1E6
:10431000E025C5F8004109E0047804F01F050124F8
:10432000AC401C4D0678761145F8264070BD1A4AFF
:104330000A400243154B1B1F1A60704739B1134ADC
:10434000121D12680243114B1B1D1A6006E00F4A32
:10435000121D126882430D4B1B1D1A607047042802
:1043600008D14FF0E021096941F004014FF0E0224B
:10437000116107E04FF0E021096921F004014FF0DD
:10438000E0221161704700000000FA050CED00E02A
:1043900000E400E080E100E080FFFF1F10B504466C
:1043A000CC48844208D10121042000F02DFB0021DB
:1043B000042000F029FB46E0C748844208D10121CF
:1043C000082000F021FB0021082000F01DFB3AE04E
:1043D000C248844208D10121102000F015FB0021C1
:1043E000102000F011FB2EE0BD48844208D10121CD
:1043F000202000F009FB0021202000F005FB22E036
:10440000B848844208D10121402000F0FDFA002183
:10441000402000F0F9FA16E0B348844208D10121A7
:10442000802000F0F1FA0021802000F0EDFA0AE08F
:10443000AE48844207D10121801500F0E5FA002141
:10444000A01500F0E1FA10BD10B50121084600F0FA
:10445000DBFA0021012000F0D7FA10BD2DE9F04170
:10446000024600250026002000230024002791F8A2
:1044700003C00CF00F0591F803C00CF0100CBCF158
:10448000000F03D091F802C04CEA050591F800C076
:10449000BCF1000F31D0146800202BE04FF0010C6C
:1044A0000CFA00F3B1F800C00CEA03069E4220D1DA
:1044B00083004FF00F0C0CFA03F7BC4305FA03FC22
:1044C0004CEA040491F803C0BCF1280F06D14FF068
:1044D000010C0CFA00FCC2F814C00AE091F803C009
:1044E000BCF1480F05D14FF0010C0CFA00FCC2F8EA
:1044F00010C0401C0828D1D31460B1F800C0BCF132
:10450000FF0F34DD546800202EE000F1080C4FF05E
:10451000010808FA0CF3B1F800C00CEA03069E4249
:1045200021D183004FF00F0C0CFA03F7BC4305FABE
:1045300003FC4CEA040491F803C0BCF1280F05D138
:1045400000F1080C08FA0CF8C2F8148091F803C0C6
:10455000BCF1480F07D100F1080C4FF0010808FA30
:104560000CF8C2F81080401C0828CED35460BDE877
:10457000F0814FF6FF710180022181700421C1702A
:1045800070470246002093680B400BB1012000E009
:10459000002070470146886880B2704702460020BC
:1045A000D3680B400BB1012000E0002070470146AA
:1045B000C86880B2704701617047416170470AB1B5
:1045C000016100E041617047C16070474FF4803283
:1045D0000A43826181618261826982697047024611
:1045E0000020434B18684FF68073184040EA0210D1
:1045F00008433F4B186070473E49C8617047F0B5AB
:104600000A46002300240021002500F00046B6F1F0
:10461000004F02D1364EF16901E0354E7168C0F3AA
:10462000034583B200F44016B6F5401F08D121F0CF
:1046300070612F4E766826F070662D4F7E6012E016
:1046400000F48016B6F5801F06D1032606FA05F49D
:10465000A14341F0706106E0460D360103FA06F60B
:10466000B14341F0706122B1460D360103FA06F6FE
:10467000314300F00046B6F1004F02D11C4EF1610B
:1046800001E01B4E7160F0BD30B500228B071C0F9E
:104690000F2303FA04F2164B08338C1053F824301E
:1046A0009343134C08348D1044F8253023468C1066
:1046B00053F824308C07240F00FA04F423430C4CE5
:1046C00008348D1044F8253030BD0A49DC310860CB
:1046D0007047000000080140000C0140001001403C
:1046E0000014014000180140001C0140002001405E
:1046F0000000014000002042DF48006840F0010057
:10470000DD49086008464068DC490840DA494860ED
:1047100008460068DA490840D7490860084600683A
:1047200020F4802008600846406820F4FE004860BD
:104730004FF41F0088607047CF49096821F4803129
:10474000CD4A11601146096821F480211160B0F54D
:10475000803F03D0B0F5802F0ED106E0C64909682E
:1047600041F48031C44A116007E0C349096841F44B
:10477000A021C14A116000E000BF00BF704710B522
:1047800001460022002300204A11012A02D1BA4C1E
:10479000236806E0022A02D1B74C236A01E0B64C36
:1047A000636A01F01F02012494401C400CB10120F7
:1047B00000E0002010BD38B5002000900024002546
:1047C00000BF3120FFF7DBFF05460098401C00903A
:1047D0000098B0F5A06F01D0002DF2D03120FFF786
:1047E000CEFF08B1012400E00024204638BD014678
:1047F0000020A14A106820F0F80040EAC1001060D3
:104800007047A04908607047024600209A4B5868DC
:1048100020F47C1042EA01031843974B586070471C
:1048200098490866704701460020934A506820F076
:1048300003000843506070478F48406800F00C0048
:104840007047014600208C4A506820F0F000084371
:104850005060704701460020874A506820F4E060AD
:1048600008435060704701460020834A506820F496
:10487000605040EAC1005060704729B17E4A527AC8
:1048800002437D4B5A7204E07B4A527A82437A4B50
:104890005A7270477B49D831086070470146002042
:1048A000754A506820F4404008435060704700212A
:1048B000714A20321170704A82F82010012802D00B
:1048C00004280AD104E001216B4A2032117005E06E
:1048D0000521694A2032117000E000BF00BF704717
:1048E0006949086070476449096A0143624A116274
:1048F0007047654944390860704730B5002100228F
:10490000002400235C4D6D6805F00C0121B10429E1
:1049100005D0082923D105E05C4D056022E05B4D00
:1049200005601FE0544D6D6805F47012524D6D68BE
:1049300005F48034022505EB92421CB9544D5543D1
:1049400005600BE04C4D6D6805F400351DB1504D10
:104950005543056002E04D4D5543056002E04B4D67
:10496000056000BF00BF444D6D6805F0F001090906
:10497000484D6B5C0568DD4045603F4D6D6805F452
:10498000E061090A434D6B5C4568DD4085603A4D46
:104990006D6805F46051C90A3E4D6B5C4568DD40A9
:1049A000C560354D6D6805F44041890B3A4D6B5C2F
:1049B000C568B5FBF3F5056130BD29B12E4A5269D2
:1049C00002432D4B5A6104E02B4A526982432A4B21
:1049D0005A61704729B1284A92690243264B9A616D
:1049E00004E0254A92698243234B9A61704729B1BA
:1049F000214AD2690243204BDA6104E01E4AD2699F
:104A000082431D4BDA61704729B11B4AD2680243C9
:104A1000194BDA6004E0184AD2688243164BDA6018
:104A2000704729B1144A12690243134B1A6104E01A
:104A3000114A12698243104B1A617047124940397A
:104A4000086070470F49C86470470B49C8717047C8
:104A50000948406A40F08070074948627047014643
:104A60000020054A92680A400AB1012000E00020B7
:104A70007047014988727047001002400000FFF83B
:104A8000FFFFF6FE000042428004424200127A001C
:104A900000093D00B4000020C400002010B5044609
:104AA000FB48844209D101218803FFF7ADFF0021B3
:104AB0004FF48040FFF7A8FF32E0F648844209D166
:104AC00001214804FFF7ADFF00214FF40030FFF74C
:104AD000A8FF25E0F048844209D101218804FFF7AE
:104AE000A0FF00214FF48020FFF79BFF18E0EB4868
:104AF000844209D10121C804FFF793FF00214FF43C
:104B00000020FFF78EFF0BE0E548844208D1012129
:104B10000805FFF786FF00214FF48010FFF781FFA3
:104B200010BD2DE9F04786B005460E460024A2468A
:104B300000BFA1460027B08900B100BF2F462C8AD4
:104B40004CF6FF700440F08804432C82AC894EF68A
:104B5000F3100440B0883189084371890843044345
:104B6000AC81AC8A4FF6FF400440B0890443AC826C
:104B700001A8FFF7C2FEC648874202D1DDF810A0A7
:104B800001E0DDF80CA0A88900F4004040B10AEB78
:104B9000CA0000EB0A1031684900B0FBF1F807E0E9
:104BA0000AEBCA0000EB0A1031688900B0FBF1F88B
:104BB0006420B8FBF0F004012009642101FB108996
:104BC000A88900F4004040B1322000EBC900B0FBDE
:104BD000F1F000F00700044308E0322000EB091078
:104BE0006421B0FBF1F000F00F0004432C8106B00B
:104BF000BDE8F0874FF41651016000218180C1802B
:104C000001810C21418100218181704710B502464C
:104C10000020108A4FF2FF0318400B884C88234372
:104C20008C882343CC8823431843108210BD002175
:104C3000018041808180C180704721B1828942F426
:104C40000052828104E082894DF6FF731A4082810E
:104C50007047F0B50346002400260025002040F6EA
:104C60006A17B94200D100BF1846C1F3421401F0DF
:104C70001F06012707FA06F5012C01D10C3004E0CC
:104C8000022C01D1103000E014301AB107682F4314
:104C9000076002E00768AF430760F0BD1AB1838A7E
:104CA0000B43838202E0838A8B4383827047028AAC
:104CB0004FF6F0731A400282028A0A43028270475A
:104CC00082894FF2FF731A40828182890A4382816E
:104CD000704721B1828942F00202828104E0828918
:104CE0004FF6FD731A4082817047028A4FF6DF73D8
:104CF0001A400282028A0A430282704721B1028A64
:104D000042F48042028204E0028A4BF6FF731A40AA
:104D100002827047C1F3080282807047014688888A
:104D2000C0F308007047818941F00101818170471B
:104D3000028BD2B20283028B42EA012202837047C5
:104D4000028B02F47F420283028B0A430283704784
:104D500021B1828A42F02002828204E0828A4FF6E8
:104D6000DF731A408282704721B1828A42F01002BA
:104D7000828204E0828A4FF6EF731A408282704783
:104D800021B1828A42F00802828204E0828A4FF6D0
:104D9000F7731A408282704721B1828942F400423F
:104DA000828103E08289C2F30E028281704721B1C1
:104DB000828A42F40062828204E0828A4FF2FF73A8
:104DC0001A4082827047828A4FF6FB731A408282B1
:104DD000828A0A438282704721B1828A42F00202AB
:104DE000828204E0828A4FF6FD731A408282704705
:104DF00002460020B1F5007F00D100BF13880B40B0
:104E00000BB1012000E00020704701F40072B2F500
:104E1000007F00D100BFCA430280704770B50246D0
:104E2000002400230025002040F66A16B14200D17C
:104E300000BFC1F3421501F01F03012606FA03F378
:104E4000012D02D19689334006E0022D02D1168A47
:104E5000334001E0968A33400C12012606FA04F42E
:104E60001688344013B10CB1012000E0002070BD61
:104E700010B50022002340F66A14A14200D100BF01
:104E80000A1201249440A3B2DC43048010BD000048
:104E9000003801400044004000480040004C004001
:104EA0000050004010B50446FE48844208D101215C
:104EB000C014FFF7A9FD0021E014FFF7A5FDC4E031
:104EC000B4F1804F08D101210846FFF7AAFD002167
:104ED0000120FFF7A6FDB8E0F348844208D1012184
:104EE0000220FFF79EFD00210220FFF79AFDACE0B3
:104EF000EE48844208D101210420FFF792FD0021F1
:104F00000420FFF78EFDA0E0E948844208D101218A
:104F10000820FFF786FD00210820FFF782FD94E0BE
:104F2000E448844208D101211020FFF77AFD0021D6
:104F30001020FFF776FD88E0DF48844208D1012188
:104F40002020FFF76EFD00212020FFF76AFD7CE0A6
:104F5000DA48844208D101214014FFF755FD0021B1
:104F60006014FFF751FD70E0D548844209D101215A
:104F7000C804FFF749FD00214FF40020FFF744FD6E
:104F800063E0D048844209D101210805FFF73CFDC8
:104F900000214FF48010FFF737FD56E0CA488442E5
:104FA00009D101214805FFF72FFD00214FF4001022
:104FB000FFF72AFD49E0C548844208D1012140207D
:104FC000FFF72FFD00214020FFF72BFD3DE0C048FB
:104FD000844208D101218020FFF723FD0021802099
:104FE000FFF71FFD31E0BB48844208D10121801545
:104FF000FFF717FD0021A015FFF713FD25E0B648C8
:10500000844209D101210804FFF7FEFC00214FF47E
:105010008030FFF7F9FC18E0B048844209D1012143
:105020004804FFF7F1FC00214FF40030FFF7ECFCDF
:105030000BE0AB48844208D101218804FFF7E4FC6F
:1050400000214FF48020FFF7DFFC10BD0022028812
:10505000944B98420ED0994B98420BD0B0F1804FB0
:1050600008D0914B984205D0904B984202D0904B7B
:10507000984204D14FF68F731A404B881A438D4BD8
:10508000984207D08C4B984204D04FF6FF431A4009
:10509000CB881A4302808B8883850B880385814BDC
:1050A00098420BD0854B984208D08B4B984205D044
:1050B0008A4B984202D08A4B984201D10B7A0386E0
:1050C00001238382704770B5002400220023058CE1
:1050D0004FF6FE7635400584028C8388048B4FF6AC
:1050E0008F752C40B51E2C400D882C43751E2A4010
:1050F0000D892A434D882A436A4DA8420BD06F4D33
:10510000A84208D0744DA84205D0744DA84202D0E0
:10511000734DA84213D14FF6F7752A404D892A43A3
:105120004FF6FB752A408D882A434FF6FF652B40CA
:105130004FF6FF552B408D892B43CD892B43838020
:105140000483CD888586028470BD70B5002400225A
:105150000023058C4FF6EF7635400584028C83885A
:10516000048B48F6FF752C404FF6FF452C400D8808
:105170004FF6FF7606EA05252C434FF6DF752A40E9
:105180000D8906EA05152A434D8806EA05152A43C6
:10519000444DA84202D0494DA8421DD14FF67F751B
:1051A0002A404D894FF6FF7606EA05152A434FF649
:1051B000BF752A408D8806EA05152A434FF6FF354C
:1051C0002B404FF2FF752B408D8906EA85052B4356
:1051D000CD8906EA85052B4383800483CD88058726
:1051E000028470BD70B5002400220023058C4FF6A8
:1051F000FF6635400584028C8388848B4FF68F755B
:105200002C404FF6FC752C400D882C434FF6FF5573
:105210002A400D894FF6FF7606EA05252A434D8878
:1052200006EA05252A431F4DA84202D0234DA84275
:105230001DD14FF2FF752A404D894FF6FF7606EAE1
:1052400005252A434FF6FF352A408D8806EA0525B5
:105250002A434EF6FF752B404DF6FF752B408D8986
:1052600006EA05152B43CD8906EA05152B438380F5
:105270008483CD888587028470BD70B500220023A9
:105280000024058C4EF6FF7635400584038C848817
:10529000828B48F6FF752A404FF6FF452A400D885D
:1052A00020E00000002C0140000400400008004005
:1052B000000C004000100040001400400034014089
:1052C000004C0140005001400054014000180040D3
:1052D000001C00400020004000400140004401400C
:1052E000004801404FF6FF7606EA05252A434DF6B1
:1052F000FF752B400D8906EA05352B434D8806EADC
:1053000005352B43FA4DA84202D0FA4DA84208D1E8
:105310004BF6FF752C408D894FF6FF7606EA851512
:105320002C4384808283CD88A0F84050038470BDD4
:10533000828B4FF2FF331A408283828B4FF6FF73CA
:1053400003EA01231A4382837047F0B50C461546E1
:10535000002200210026078C4EF6FF7C07EA0C078E
:105360000784828B018C4FF6FF7707EA043640F6FC
:10537000FF473A404FF6FF7707EA05273A434FF6D3
:10538000FF7707EA03373A43D94FB8420ED0D94FD7
:10539000B8420BD0B0F1804F08D0D74FB84205D0FB
:1053A000D64FB84202D0D64FB84206D14DF6FF775D
:1053B000394046F48057394305E047F6FF573940F6
:1053C00044F48057394382830184F0BD828B4FF6C9
:1053D000F3731A408283828B0A4382837047F0B54D
:1053E0000C461546002200210026078C4FF6FF6C64
:1053F00007EA0C070784828B018C4FF6FF7707EAD8
:1054000004264FF60C773A404FF6FF7707EA03176A
:105410002F433A43B64FB8420ED0B64FB8420BD0E6
:10542000B0F1804F08D0B44FB84205D0B34FB84266
:1054300002D0B34FB84206D14FF6FF57394046F479
:105440008077394305E04FF2FF57394044F48077C5
:10545000394382830184F0BD028B4FF2FF331A403F
:105460000283028B4FF6FF7303EA01231A43028380
:105470007047F0B50C461546002200210026078C27
:105480004FF6EF7C07EA0C070784028B018C4FF67E
:10549000FF7707EA041640F6FF473A404FF6FF77DA
:1054A00007EA03373A434FF6FF7707EA05273A43FF
:1054B0008F4FB8420ED08F4FB8420BD0B0F1804F13
:1054C00008D08D4FB84205D08C4FB84202D08C4FD7
:1054D000B84206D14FF6DF77394046F0100739431E
:1054E00005E04FF65F77394044F0100739430283F7
:1054F0000184F0BD028B4FF6F3731A400283028BD6
:105500000A4302837047F0B50C461546002200217D
:10551000068C4FF6FE773E400684028B018C4FF6D8
:105520000C7632407E1C06EA03162E433243704E40
:10553000B0420ED06F4EB0420BD0B0F1804F08D0C9
:105540006D4EB04205D06D4EB04202D06C4EB042AE
:1055500006D14FF6FD76314044F00106314305E0B7
:105560004FF6F576314044F0010631430283018461
:10557000F0BD70B505460C465D4885420ED05D48CD
:1055800085420BD0B5F1804F08D05B48854205D0ED
:105590005A48854202D05A48854200D100E000BFF7
:1055A000208850B92389A28861882846FFF7ABFF7D
:1055B000E1882846FFF79EFF25E0208804280AD1CD
:1055C0002389A28861882846FFF753FFE18828468F
:1055D000FFF742FF17E0208808280AD12389A28814
:1055E00061882846FFF7FBFEE1882846FFF7EEFEBC
:1055F00009E02389A28861882846FFF7A6FEE18892
:105600002846FFF795FE70BD2DE9F04105460C4692
:1056100000260127608808B9022600E00026A0883D
:10562000012801D1022700E001272088A0B92389A1
:10563000A28861882846FFF766FFE1882846FFF7C1
:1056400059FF23893A4631462846FFF712FFE18881
:105650002846FFF701FF13E02389A28861882846C6
:10566000FFF707FFE1882846FFF7F6FE23893A4651
:1056700031462846FFF747FFE1882846FFF73AFF03
:10568000BDE8F0810A884B881A438B881A43CB887F
:105690001A430B891A434B891A438B891A43A0F882
:1056A000442070474FF6FF71818000210180C18046
:1056B0004180017270470021018041808180C1805A
:1056C000018141818181C181704700210180418038
:1056D000012181800021C18001817047002101806A
:1056E00041808180C18001814181818170470000BA
:1056F000002C01400034014000040040000800403C
:10570000000C004021B1028842F00102028004E056
:1057100002884FF6FE731A400280704731B1B0F82C
:10572000442042F40042A0F8442005E0B0F84420B0
:10573000C2F30E02A0F8442070471AB183890B43CC
:10574000838102E083898B43838170478182704724
:1057500041EA0203A0F8483070471AB183890B432D
:10576000838102E083898B438381704701894FF6EF
:10577000F8721140018170470A46002101894FF6F5
:105780008F73194011430181704730B504460D46AF
:1057900029462046FFF7F0FF208940F007002081CE
:1057A00030BD2DE9F04104460D4616461F46602DDA
:1057B00006D13B46012231462046FFF75AFE05E05E
:1057C0003B46012231462046FFF79DFE29462046F2
:1057D000FFF7D2FF208940F007002081BDE8F0816B
:1057E00030B50C4600210189C9B24FF6FF7505EAB4
:1057F0000325154325432943018130BD2DE9F0419F
:1058000005460E4617469846002443463A4631461A
:105810002846FFF7E5FF2C894FF6F870044044F066
:1058200007044FF68F70044044F070042C81BDE8EB
:10583000F081F0B504460D4616461F463B463246FB
:1058400029462046FFF7CCFF208940F48040208184
:10585000F0BD0185828270470A46002101884FF61B
:105860008F731940114301807047F0B50C461546FF
:105870001E460021002200230189028B038C4FF673
:10588000F877394021434FF6FC473A4040F2011780
:105890003A434FF6DD773B404FF6FF7707EA0617AE
:1058A0002F433B43018102830384F0BD0A4600215C
:1058B000018B4FF68F7319401143018370470A46DD
:1058C0000021018B48F6FF7319404FF6FF7303EA7E
:1058D00002231943018370470A460021818B4FF64A
:1058E0008F7319401143818370470A460021818BD1
:1058F00048F6FF7319404FF6FF7303EA022319437A
:105900008183704721B1028842F08002028004E066
:1059100002884FF67F731A400280704721B1828857
:1059200042F00402828004E082884FF6FB731A4042
:105930008280704721B1828842F00802828004E0B0
:1059400082884FF6F7731A408280704721B18288AF
:1059500042F00102828004E082884FF6FE731A4012
:10596000828070470A460021018B4FF6F773194079
:105970001143018370470A460021018B4FF2FF73E8
:1059800019404FF6FF7303EA02231943018370475E
:105990000A460021818B4FF6F7731940114381832A
:1059A00070470A460021818B4FF2FF7319404FF672
:1059B000FF7303EA02231943818370470A460021DB
:1059C000018B4FF6FB7319401143018370470A4660
:1059D0000021018B4FF6FF3319404FF6FF7303EAA6
:1059E00002231943018370470A460021818B4FF639
:1059F000FB7319401143818370470A460021818B54
:105A00004FF6FF3319404FF6FF7303EA02231943A1
:105A1000818370470A460021018B4FF67F7319403E
:105A20001143018370470A460021018BC1F30E0127
:105A30004FF6FF7303EA02231943018370470A46B6
:105A40000021818B4FF67F7319401143818370478A
:105A50000A460021818BC1F30E014FF6FF7303EA62
:105A600002231943818370470A460021018C4FF6B7
:105A7000FD7319401143018470470A460021018CCF
:105A80004FF6F77319401143018470470A4600210D
:105A9000018C4FF6DF7319404FF6FF7303EA0213D0
:105AA0001943018470470A460021018C4FF67F7329
:105AB00019404FF6FF7303EA02131943018470473C
:105AC0000A460021018C4FF6FF5319404FF6FF7331
:105AD00003EA02231943018470470A460021018C1E
