:020000040800F2
:1000000060140020594B00087102000873020008B8
:10001000770200087B0200087F0200080000000051
:100020000000000000000000000000008302000843
:10003000850200080000000087020008890200080D
:10004000734B0008734B0008734B0008734B000898
:10005000734B0008734B0008EF7200084F730008E1
:10006000734B0008734B0008734B0008734B000878
:10007000734B0008734B0008734B0008734B000868
:10008000734B0008734B0008734B0008734B000858
:10009000734B0008734B0008734B0008AD730008E6
:1000A000734B0008734B0008734B0008734B000838
:1000B00093040008E9040008734B0008734B000820
:1000C000734B0008734B0008734B0008734B000818
:1000D000734B00085948000811490008734B000889
:1000E000734B0008734B0008734B0008734B0008F8
:1000F000734B0008734B0008734B0008734B0008E8
:10010000734B0008734B0008734B0008734B0008D7
:10011000734B0008734B0008734B0008734B0008C7
:10012000734B0008734B0008734B0008734B0008B7
:1001300000F002F800F071F80AA090E8000C824488
:100140008344AAF10107DA4501D100F066F8AFF265
:10015000090EBAE80F0013F0010F18BFFB1A43F0A5
:1001600001031847B8AC0000D8AC00000A444FF0B7
:10017000000C10F8013B13F0070408BF10F8014B06
:100180001D1108BF10F8015B641E05D010F8016B4B
:10019000641E01F8016BF9D113F0080F1EBF10F8AF
:1001A000014BAD1C0C1B09D16D1E58BF01F801CBD2
:1001B000FAD505E014F8016B01F8016B6D1EF9D555
:1001C0009142D6D37047000000230024002500266A
:1001D000103A28BF78C1FBD8520728BF30C148BFAA
:1001E0000B607047642907F0E987002070471FB54E
:1001F0001FBD10B510BD70477047704770477047FE
:1002000041707220313720323032350030304400B6
:1002100031393A35323A3235000008F056FA114693
:10022000FFF7E5FF00F008F808F074FA03B4FFF7F1
:10023000E0FF03BC04F058FA00F067FC00F0D4FBC8
:100240004FF4E13004F05FFA00F006FA00F0E5FA4E
:1002500006F046FF06F057FF07F0CAF9322000F01B
:1002600024FC03F05DFA62B602F042F800BFFEE73C
:10027000704700BFFEE700BFFEE700BFFEE700BF1C
:10028000FEE7704770477047704700000CB50020CC
:10029000019000906C48006840F480306A49086022
:1002A00000BF6948006800F4003000900198401CCD
:1002B0000190009818B90198B0F5A06FF1D162488B
:1002C000006800F4003010B10120009001E000202F
:1002D00000900098012843D15C48006840F010006D
:1002E0005A4908600846006820F003000860084684
:1002F000006840F002000860534840685249486076
:100300000846406848600846406840F4806048609D
:100310000846406820F47C1048600846406840F475
:10032000E81048600846006840F08070086000BF30
:100330004548006800F000700028F9D04248406845
:1003400020F00300404948600846406840F0020041
:10035000486000BF3C48406800F00C000828F9D114
:100360000CBD10B5FFF792FF10BD10B53648006800
:1003700040F00100344908600846406834490840AC
:100380003149486008460068324908402E490860F3
:100390000846006820F4802008600846406820F481
:1003A000FE0048604FF41F008860FFF7DAFF4FF04F
:1003B00000602949086010BD10B50021002000220E
:1003C000214B5B6803F00C0121B1042906D00829F8
:1003D00028D107E0214B224C236027E01F4B204C03
:1003E000236023E0184B5B6803F47010164B5B68C6
:1003F00003F48032022303EB904022B9194B4343AC
:10040000174C23600DE0104B5B6803F4003323B1FD
:10041000144B4343124C236003E0104B4343104CF6
:10042000236003E00D4B0E4C236000BF00BF064B62
:100430005B68C3F303130C4CE15C094B1B68CB40B6
:10044000074C236010BD0000001002400020024055
:100450000000FFF8FFFFF6FE08ED00E000127A0052
:100460000000002000093D000400002010B5002815
:1004700007DA0A07140EFE4A00F00F031B1FD454BC
:1004800003E00A07130EFB4A135410BD7047704770
:10049000704710B50121880706F069F8B8B101214D
:1004A000880706F075F8F4480068401CF2490860B7
:1004B000F2480068401CF1490860F1480068401C9F
:1004C000EF490860EF480068401CEE49086010BD25
:1004D00010B50120EC4908700020EC490860182193
:1004E000EB4807F0ACFF10BD2DE9FC5F0221E948A5
:1004F00006F03DF8002879D00221E64806F048F8D9
:10050000E548006808B9012000E00020E2490860E1
:10051000E248D0F800018000E149D1F81C1100EB5D
:100520004100E04909680844DF490870D94834307F
:100530000088DE490880D448007820B1012832D0F4
:10054000022879D15AE0D948008800EB40004000E9
:10055000C5170446D4480078401ED54951F82000FC
:10056000D449A0FB01124FF4B4734FF0000CA1FB6F
:10057000036B02FB03B201FB0C2122462B463046E3
:1005800007F0BCFD80464FF0FF32002307F0B6FDB8
:10059000CDE90001C84802780023009807F0AEFDBD
:1005A000C649086049E0C6480088062190FBF1F082
:1005B00064281CDABC480078401EB54951F8200078
:1005C000BA4909880144B8480078401EB04A42F848
:1005D0002010AE480068B54909880844AB49086056
:1005E000B7480088401CB649088006E026E0002095
:1005F000B34908800220A44908701EE04FF0000AA9
:1006000012E0A34850F82A004FF0FF31A0FB014050
:1006100001469E4800230268204607F06FFDA4496A
:1006200041F82A000AF1010ABAF1060FE9DB0020BD
:100630009549087001E0FFE700BF00BF0121954820
:1006400005F095FF30B10121924805F0A1FF00208F
:100650009A490860BDE8FC9F08B50121102004F00C
:1006600025FEC020ADF8000003208DF80200102008
:100670008DF803006946934804F05CFB08BD92497D
:100680000870704790480078072872D2DFE800F0C1
:10069000040E2236517F090001207F49091D0860A0
:1006A000B9E000207C49091D0860B4E08748006873
:1006B000401C8649086019280BD300200860764842
:1006C000001D006808B9012000E000207249091DE2
:1006D0000860A0E07D480068401C7C49086008284C
:1006E0000BD3002008606C48001D006808B9012089
:1006F00000E000206849091D08608CE0734800682C
:10070000401C7249086008460068052804D801208A
:100710006149091D08600BE06C480068502804D846
:1007200000205D49091D086002E00020674908605B
:1007300071E066480068401C64490860084600682B
:10074000052804D801205449091D08601EE05F48AF
:1007500000680F2804D800204F49091D086015E0E3
:100760005A480068192805D801204B49091D08601E
:100770000CE04BE055480068642804D80020464946
:10078000091D086002E000205049086043E04F481E
:100790000068401C4D49086008460068052804D8D8
:1007A00001203D49091D08602FE0484800680F28D6
:1007B00004D800203849091D086026E04348006835
:1007C000142804D801203449091D08601DE03F4861
:1007D00000681E2804D800202F49091D086014E075
:1007E0003A480068232804D801202B49091D0860D5
:1007F0000BE0364800686E2804D800202649091D01
:10080000086002E000203149086004E0012022492C
:10081000091D086000BF00BF704700B589B0012105
:10082000084604F050FD4FF0804004F0A7FF4FF061
:10083000804005F007FC4720ADF818000020ADF817
:100840001E00ADF81A004FF47A70ADF81C000020BD
:100850008DF8200006A94FF0804005F063F80122D2
:100860001146900705F0D5FB0121042030E000007F
:1008700018ED00E000E400E0140000201800002063
:100880001C00002020000020300000203400002048
:1008900034010020000400409801224200802142DF
:1008A00000002142180121423100002028000020D0
:1008B0003800002080841E00580000202C000020FA
:1008C00050000020001001402400002054000020AF
:1008D00004F0ECFC0121084604F0E8FC4FF48070C1
:1008E000ADF8140003208DF8160018208DF81700BD
:1008F00005A9954804F01EFA0121C80204F0D6FCAF
:10090000924804F03BFF914805F09CFB4720ADF86E
:1009100018000020ADF81E00ADF81A0040F6C31014
:10092000ADF81C0000208DF8200006A9874804F0CF
:10093000F9FF01221146854805F06BFB6020ADF8F8
:1009400004000120ADF806000020ADF80C0001A95C
:100950007E4805F024F801217C4805F04BFB082176
:100960007A4805F06BFC4FF47A71784805F0CEFDBB
:100970000121880705F032FB0121744805F02EFBA8
:100980001C2000F0D7F801211C20FFF76FFD1C2070
:1009900000F0C5F809B000BD08B50121042004F03D
:1009A00085FC0121082004F081FC0121084604F0A7
:1009B0007DFCC020ADF8000003208DF80200482027
:1009C0008DF803006946604804F0B4F90120ADF8E1
:1009D000000003208DF8020048208DF803006946CE
:1009E0005B4804F0A7F908BD00B587B0FFF7D4FF56
:1009F0000121022004F067FC564804F0BFFE554870
:100A000005F020FB2320ADF810000020ADF8160003
:100A1000ADF812004FF6FF70ADF8140000208DF80D
:100A2000180004A94B4804F07DFF0020ADF8040035
:100A30000A20ADF806000320ADF808000020ADF84C
:100A40000A000520ADF80C0001A9424805F0FDF9A7
:100A50001D2000F06FF803211D20FFF707FD1D206A
:100A600000F05DF801213B4805F01CFD40213948AC
:100A700005F0EEFA0421374805F032FD80213548B3
:100A800005F037FD0121334805F000FD0122032167
:100A9000304805F0BEFA01212E4805F09FFA0321E7
:100AA0002C4805F075FD07B000BD0CB50021019183
:100AB000009100910EE00021019103E000BF019937
:100AC000491C019141F2883201999142F6D3009973
:100AD000491C009100998142EDD30CBD0CB5002159
:100AE0000191009100910CE00021019103E000BF11
:100AF0000199491C019101990829F8D30099491CD1
:100B0000009100998142EFD30CBD10B572B64FF43D
:100B1000806004F041F83220FFF7C7FF10BD00F0FD
:100B20001F02012191404209920002F1E022C2F825
:100B30000011704700F01F0201219140064A43094D
:100B400042F823107047000000080140002C0140CB
:100B5000000C01400004004080E100E031B10129B7
:100B600015D0022923D003293DD12EE04FF47A720B
:100B7000C2815200028240F6C4124281028AC389B5
:100B8000D21A12B242824FF47A7282822CE064222C
:100B9000C28140F6B832028240F605524281028A92
:100BA000C389D21A12B24282642282821CE00022DD
:100BB000C2814FF47A7202824281028AC389D21AB8
:100BC00012B24282322282820EE00022C28140F6BC
:100BD000055202824281028AC389D21A12B242822B
:100BE0003222828200E000BF00BF704770B5044629
:100BF0000D46042D12D1B4F90800032801DD0320AD
:100C00002081208981B22046FFF7A8FF608981B248
:100C1000F84805F079FCA08A608336E0BDB9B4F9E4
:100C20001200B4F9001048434FF47A71B0FBF1F0B0
:100C3000E189084400B22083B4F91800B4F9141013
:100C4000884201DAA08A2083208B60831DE0022D78
:100C500019D1A088E082B4F91200B4F90410484315
:100C60004FF47A71B0FBF1F0E189084400B2E08200
:100C7000B4F91600B4F91410884201DAA08AE082AF
:100C8000E08A608301E0A08A608370BD1FB5002008
:100C900006F06BFC0020D84908704FF4FA70D74971
:100CA00008806420488040F2E73088806420C88053
:100CB000022008810421D148FFF798FF0021CF4886
:100CC000FFF794FF0221CD48FFF790FFCB48808AC1
:100CD00081B2C84805F01AFC0322C949C94803F08B
:100CE0002CFF8EE0012008235622002100900A20CC
:100CF00006F034FD01200090C3480278082300214B
:100D0000122006F02BFD012008232E220021009046
:100D10001A2006F023FD01200090BB4842780823EA
:100D20000021222006F01AFD012008232E22002196
:100D300000902A2006F012FD01200090B24882782F
:100D400008230021322006F009FDAB48007860B18D
:100D500001200623AD4A022100900A2006F0AEFDD4
:100D6000AB480078AB49087025E0AB4800680A281A
:100D700021D90020A8490860A548007810B10128B1
:100D800014D10AE00322A5499E4803F0D6FEA048EC
:100D90000078401C9E4908700CE00322984999484D
:100DA00003F0CBFE00209A49087003E00020984928
:100DB000087000BF00BF01200623994A042100905B
:100DC0000A2006F07BFD01200623964A05210090AB
:100DD0000A2006F073FD94480168944808F018F959
:100DE00004460120062192A20323CDE90032CDE979
:100DF0000210022322460A2006F01DFE1420FFF7EF
:100E000054FE06F0E1F906287FF46CAF1FBDF8B57B
:100E100005460C4617461E46062D34D2DFE805F07F
:100E2000030A131A232BE0B233463A46022107F095
:100E30001FF829E004F14001C8B233463A460221C6
:100E400007F016F820E0E0B233463A46042107F0F6
:100E50000FF819E004F14001C8B233463A460421C4
:100E600007F006F810E0E0B206233A46194600966D
:100E700006F024FD08E0E0B206233A46072100967A
:100E800006F01CFD00E000BF00BFF8BD2DE9FF47E4
:100E900007460C46164698460C9D062F7ED2DFE884
:100EA00007F0032B41698194304608F069F88246C7
:100EB0005E4907F04FFF814606205EA10122CDE981
:100EC0000205CDE90021E0B202234A46194606F0A8
:100ED000B2FDB8F9180008F03BF88146062056A18B
:100EE0000022CDE90205CDE90021E0B204234A4603
:100EF000032106F0A0FDA6E006EB8601480008F0FD
:100F000027F8814606204DA10022CDE90205CDE952
:100F1000002104F14001C8B204234A46022106F030
:100F20008AFD90E0304608F02BF882463F4907F0F2
:100F300011FF814606203FA10122CDE90205CDE93E
:100F40000021E0B202234A46042106F074FDB8F9FC
:100F5000160007F0FDFF8146062037A10022CDE9EB
:100F60000205CDE90021E0B204234A46052106F03E
:100F700062FD68E006EB8601480007F0E9FF814664
:100F800006202EA10022CDE90205CDE9002104F1C1
:100F90004001C8B204234A46194600E052E006F078
:100FA0004AFD50E0304607F0EBFF81460620002165
:100FB0000091CDE90205019104F10C01C8B20223B0
:100FC0004A46062106F037FD3DE01D48007807F04F
:100FD000D7FF8146062000210091CDE9020501914D
:100FE00004F10C01C8B202234A46072106F023FD92
:100FF00029E00000002C014008010020FE01002033
:101000005C000020004400400C020008E5010020C4
:10101000AB0000205B0000201C00002066000020C8
:101020000002000810020008FC000020000020411F
:101030006DCEA90020250000757300006D730000BF
:101040005800002000BF00BFBDE8FF872DE9F04732
:1010500080460E4615464FF0010A15B14FF00009C3
:1010600001E04FF00109E3E0BAF1000F5DD04FF06D
:10107000000A022E2BDD002424E0FE480078A04266
:101080000FD0600000EB4500C1B2FB48007820445F
:1010900000EB001000EB08020123002006F0E8FE40
:1010A0000EE0600000EB4500C1B2F3480078204438
:1010B00000EB001000EB08020023184606F0D8FEF3
:1010C000601CC4B209F10300A042D6DC28E0002471
:1010D00024E0E8480078A0420FD0E7480078204498
:1010E00000EB001000EB0802022000EB4400C1B24C
:1010F0000123002006F0BCFE0EE0DF48007820440B
:1011000000EB001000EB0802022000EB4400C1B22B
:101110000023184606F0ACFE601CC4B2022CD8DBDB
:1011200000BF06F051F80028FBD106F067F807462B
:10113000072F2CD10020D1490880022E1CDDCD487C
:101140000078002805DDCB480078401EC9490870AA
:101150001BE0C9480078002805DDC7480078401E1C
:10116000C549087011E0C5F10300C2490870301F7D
:101170002844C149087008E0BE480078002804DD12
:10118000BC480078401EBB4908704FF0010A082F88
:101190002ED10020BA490880022E1DDD09F102007F
:1011A000B4490978884205DDB2480078401CB1494D
:1011B00008701BE0B0480078C01C4844B04205DA13
:1011C000AD480078401CAC4908700FE00020AA49E7
:1011D0000870A849087009E0701EA649097888427D
:1011E00004DDA4480078401CA24908704FF0010AB1
:1011F000092F0AD10A20FFF771FC9F4800789D490A
:1012000009780844C0B2BDE8F087022F06D10A2051
:10121000FFF764FCFFF73AFDFF20F4E7062F04D147
:101220000A20FFF75BFCFF20EDE70420FFF73DFC01
:101230001AE770477047704770472DE9F04F87B045
:101240000024A14600270026A04600208D490870F2
:1012500001208D49087000208C49087001208C49BC
:10126000087000208B4908708B49087006208B4954
:1012700008708B49087002F08FFD02F031FB0622E6
:101280008849894806F074FE86480078FF2812D104
:1012900084480088C0F30720FF280CD14FF4FA706F
:1012A000804908806420488040F2E73088806420CC
:1012B000C88000200881002006F057F9012006238D
:1012C0007AA219460090682006F0F8FA0120062359
:1012D00076A207210090682006F0F0FA04217148F8
:1012E000FFF784FC00216F48FFF780FC02216D4866
:1012F000FFF77CFCDDE163480078012806D0022876
:1013000049D003287ED004287DD1FEE04FF00008AC
:10131000002067490870674880796649C97940EAC2
:10132000012065490880634840796249097940EAAB
:1013300001206249086000205249087001200621FE
:101340000523CDE900105C4802880721402006F003
:1013500008FB5A480068E8B10EB9012000E00020FF
:1013600006462EB100220121104606F01BF911E0BD
:101370000120082352A200210090084606F09EFAA0
:101380000120082102234D4ACDE900100021482008
:1013900006F029FC0AE14FF000084B4800780A28C3
:1013A00038D100204549086042484079414989794F
:1013B00040EA012040490880002032490870434833
:1013C00000683D4909880844404908604048007861
:1013D000401C3F490870084600780A2829D100209F
:1013E00008703A4800680A21B0FBF1F039490880DA
:1013F000002036490860012006210523CDE90010B0
:10140000344801E016E0CBE002880721402006F0D6
:10141000A8FA0EE02C48007806280AD12548007961
:101420002449C97840EA0120244908600020154970
:101430000870BBE04FF000080020204908601D48FC
:1014400000791C49C97840EA01201B490880002026
:101450000C4908701D4800681749098808441B4951
:1014600008601B480078401C19490870084600783D
:101470000A2831E0590000205A00002024010020F1
:10148000260100200801002058000020A7000020AD
:10149000A8000020A9000020AA000020A50000202C
:1014A000A6000020FE01002000F0030852504D006D
:1014B000850000206C0400207C00002080000020BB
:1014C0004572726F723A00000A0100208800002005
:1014D000840000207E00002016D100200870FE4805
:1014E00000680A21B0FBF1F0FC4908800020FA49AD
:1014F0000860012006210523CDE90010F748028885
:101500000721402006F02DFA50E04FF0000800209F
:10151000F3490870F3480078F3490870F14880787F
:10152000F049497840EA0120F0490880ED48007A06
:10153000EC49C97940EA0120ED4908800020ED49D5
:101540000870E5480068EA4909880844E2490860EB
:10155000E9480078401CE8490870084600780A28E5
:101560001DD100200870DC4800680A21B0FBF1F0B2
:10157000DA4908800020D8490860D84800886421EA
:101580004843DE49097890FBF1FA01200621052342
:101590005246CDE900100721402006F0E2F905E0AF
:1015A0000020D3490880D349087000BF00BFD44849
:1015B00000680A287DD90020D1490860D148007808
:1015C00010B1012824D112E00322CF49CF4803F003
:1015D000B4FA4046411C01F0FF08032806DD4FF035
:1015E0000008C8480078401CC649087014E003226F
:1015F000C749C64803F0A1FA4046411C01F0FF0864
:10160000032804DD4FF000080020BE49087003E005
:101610000020BC49087000BF00BF4846411C01F0D3
:10162000FF090A287EDD4FF00009BA480068F0B1D2
:101630000EB9012000E0002006462EB10022012153
:10164000104605F0AFFF12E001200823AFF2901220
:1016500000210090084606F031F9012008210223FC
:10166000AC4ACDE900100021482006F0BCFA0FB9C1
:10167000012000E000200746AFBBA648006890BBF1
:1016800005A906A802F083FCBDF8180007F078FC55
:101690008346A14907F05EFB8246012008219FA2F4
:1016A0000223CDE90032CDE902105246002108465E
:1016B00000E0A1E206F0BFF9BDF9140007F048FC14
:1016C0008346974907F046FB82460120082195A2F0
:1016D0000323CDE90032CDE9021002235246002156
:1016E000482006F0A8F99048006807F049FC0390EC
:1016F0008E4801684FF07E5007F092FD02900399EA
:1017000007F086FC83468A48006807F039FC03909E
:1017100086480168039807F07BFC5946049007F05F
:10172000ABFA00E00EE0824607F0F2FB8049086069
:10173000012006210523CDE900107D4802684020E4
:1017400006F00FF97B48007800285BD0002079492B
:10175000087079A1794806F009FE79A1774811301F
:1017600006F004FE77A17548223006F0FFFD74A153
:101770007248333006F0FAFD73A17048443006F029
:10178000F5FD73A16D48553006F0F0FD002422E010
:1017900071480078A04203D17048007801280CD12C
:1017A0006F480078204400EB001064494218012380
:1017B00000212046FFF72BFB0BE06948007820440E
:1017C00000EB00105D494218002319462046FFF740
:1017D0001EFB601CC4B2634800788442D8DB00243E
:1017E0000CE001200090604830F8140082B25E4B9B
:1017F00010212046FFF74AFB601CC4B2594800780C
:101800008442EEDB5948007890B1002057490870B7
:10181000009053480078504909780844524931F8FB
:10182000100082B20B4610214B480078FFF72EFBC8
:1018300005F0E4FC05460A2D4CD2DFE805F04BF438
:10184000F34B4B4B4B05D0F24948007848BB002086
:101850004849088040480078002805DD3E48007867
:10186000401E3D49087015E03D480078002805DD20
:101870003B480078401E3A4908700BE03948007830
:10188000401E354908703C48007836490978401AAE
:101890003349087001202749087000202F4908703B
:1018A0009CE031482C49097830F811103148008803
:1018B000401C081A00B22C49274A127821F812005D
:1018C00000202C49088028482349097830F9110064
:1018D000002853E04EE10000880000207E00002038
:1018E000850000206C040020780000207A00002091
:1018F0007C00002008010020840000205800002007
:101900001C0000205B0000208E00002000440040EE
:1019100098000020800000200000C842560000000F
:1019200000007A44410000002C00002074000020D8
:1019300070000020A80000204C3A00004C0100205C
:10194000543A0000483A00004D6F64653A000000C8
:10195000506F6C653A000000A2000020A700002034
:10196000A3000020A5000020FE010020A900002007
:10197000AA00002024010020A600002005DA002093
:10198000FD49FE4A127821F812000120FC49087036
:10199000FA480178F848FFF729F9F8480078042850
:1019A0000FD10021F448FFF721F90221F248FFF797
:1019B0001DF9F148808AF04948830120F1490870F7
:1019C0000CE0EE480078052808D1EF48007801289F
:1019D00004DDED480078401EEB490870CBE0EB4891
:1019E000007868BB0020EA490880EA480078401E79
:1019F000E2490978884205DDE0480078401CDF496B
:101A0000087016E0E4480078E24909780844E349A0
:101A10000978884208DAE0480078401CDE490870FE
:101A200007E06DE05AE068E00020DB490870D34928
:101A300008700120D34908700020D94908704CE093
:101A4000CD48CE49097830F81110D1480088401CA3
:101A5000084401B2C848C94A127820F81210002080
:101A6000CB490880C448C549097830F91100B0F560
:101A70007A7F06DB40F2E731BF48C04A127820F88F
:101A800012100120BE490870BC480178BA48FFF71F
:101A9000ADF8BA48007804280FD10021B648FFF706
:101AA000A5F80221B448FFF7A1F8B348808AB249EB
:101AB00048830120B34908700FE0B048007805283A
:101AC0000BD1B1480078042807DAAF480078401CF1
:101AD000AD4908700120AB4908704CE0B04800786F
:101AE00008B9012000E00020AD4908700120A54997
:101AF00008700020A54908703DE0FEF7E9FC3AE0D7
:101B0000A848006820B100220121104605F04AFDD6
:101B1000A3480078F8B906229749A34806F039FA95
:101B20009A48007808B9012000E000209749087021
:101B300008460078012802D19149087002E001208E
:101B4000904908709148007898B18C4801788A488B
:101B5000FFF74CF80DE09248007808B9012000E04A
:101B600000208F49087001208649087000208749AD
:101B7000087000E000BF00BF8948007830B37E489D
:101B80008089401C00B27C4988810846B0F90C006D
:101B9000B1F90210884204DA7748008B76498883CD
:101BA00024E07548B0F902007349B1F90610084401
:101BB0007149B1F90C10884204DD6F48C08A6E4942
:101BC000888313E000206C4988810FE06F4800781B
:101BD00030B10020684988810846408B888305E041
:101BE0000020654988810846808A88836248808B06
:101BF00081B26E4804F08AFC05F0E6FA06287FF40C
:101C00007AAB06225C49684806F0C3F900206849AF
:101C100008805F4908805848808A81B2634804F090
:101C200075FC07B0BDE8F08F2DE9F04786B081461E
:101C3000002400270026002059490870012051493E
:101C4000087000204E49087050490870042051491E
:101C500008705249087002F09FF801F041FE002020
:101C600005F083FC012353A20021162006F000F9A1
:101C700001200823AFF2CC7206210090682005F005
:101C80001DFE06224E4948480C3006F071F94C48BA
:101C90000078FF2812D14A480088C0F30720FF28A7
:101CA0000CD140F2E930464908806420488040F277
:101CB000D17088806420C8800120088104214048B8
:101CC000FEF794FF00213E48FEF790FF02213C48BA
:101CD000FEF78CFFFAE23B4800680A28FAD9002098
:101CE000384908603846791CCFB20A287ADD0027C7
:101CF0000EB9012000E00020064686B101F030FE5A
:101D000080460120062130A2CDE90002022342468E
:101D1000CDE902100721002005F08DFE62E004A944
:101D200005A802F034F9BDF8140007F029F982463D
:101D3000264907F00FF8804601200621AFF2244221
:101D40000223CDE90032CDE90210424600215020A5
:101D500005F071FEBDF9100007F0FAF882461C4943
:101D600006F0F8FF804601200621AFF24842032327
:101D7000CDE900322EE00000FE010020A20000208C
:101D8000A9000020A800002058000020AA00002080
:101D900026010020A5000020A3000020A6000020AE
:101DA000A70000208000002000F00308002C014064
:101DB00024010020433631E6B58BE8AF95000000E2
:101DC0001C0200201C000020636D48000000C84277
:101DD00000007A44CDE902100346424601465020F5
:101DE00005F029FEF8480078002876D00020F64952
:101DF0000870AFF2B041F54806F0B8FAAFF2C04152
:101E0000F248113006F0B2FAAFF2D441EF48223076
:101E100006F0ACFAAFF2D841EC48333006F0A6FA3F
:101E2000EBA1EA48443006F0A1FAEA48B0F91820DC
:101E3000E9A1EB4806F086F9E648B0F9020000EBAC
:101E400080004200E7A1E648103006F07BF9E14847
:101E5000B0F91620E0A1E248203006F073F9DD4821
:101E6000B0F9060000EB80004200DEA1DC48303013
:101E700006F068F9D748B0F90820DCA1D84840300E
:101E800006F060F9002422E0DA480078A04203D18D
:101E9000D948007801280CD1D8480078204400EBBC
:101EA0000010CA494218012300212046FEF7AFFF67
:101EB0000BE0D2480078204400EB0010C3494218E0
:101EC000002319462046FEF7A2FF601CC4B2CC488E
:101ED00000788442D8DB002410E013E00120009059
:101EE000C64800782044BB4931F8100082B20B4646
:101EF00010212046FEF7CAFF601CC4B2C04800781B
:101F00008442EBDBBF480078002840D00020BD4968
:101F10000870B048B0F91820AFA1B14806F012F926
:101F2000AC48B0F9020000EB80004200ADA1AC4823
:101F3000103006F007F9A748B0F91620A6A1A84866
:101F4000203006F0FFF8A348B0F9060000EB80004F
:101F50004200A4A1A248303006F0F4F89D48B0F940
:101F60000820A2A19E48403006F0ECF80020009026
:101F7000A24800789F4909780844964931F8100032
:101F800082B20B4610219B480078FEF77FFF05F0D8
:101F900035F905462846022D7DD0072804D00828AB
:101FA00057D0092878D1D3E09748007848BB002063
:101FB000964908808F480078002805DD8D48007814
:101FC000401E8C49087015E08C480078002805DD1B
:101FD0008A480078401E894908700BE088480078DC
:101FE000401E844908708A48007885490978401A5B
:101FF0008249087001207449087000207E490870E9
:1020000026E074487B49097830F811107F48008831
:10201000401C081A00B26F49764A127821F8120063
:1020200000207A4908806B487249097830F911001C
:10203000002805DA002067496E4A127821F812005C
:102040000120704908706B4801786248FEF7CEFDA8
:10205000B1E06D48007860BB00206E490880684898
:102060000078401E63490978884205DD61480078A0
:10207000401C6049087015E06048007860490978A4
:10208000084463490978884207DA5C480078401CB4
:102090005A49087006E04CE08CE00020574908706F
:1020A00054490870012048490870002052490870BE
:1020B0003EE048484F49097830F8111055480088EB
:1020C000401C084401B243484A4A127820F81210D2
:1020D0000020504908804748007818B145480078EA
:1020E00002280ED13B484349097830F9110040F6E7
:1020F000B831884214DD37483E4A127820F8121071
:102100000EE034483B49097830F91100B0F5FA7F08
:1021100006DD4FF4FA712F48364A127820F8121073
:10212000012038490870334801782A48FEF75EFDDF
:1021300041E03148007808B9012000E000202E4934
:10214000087001202049087000202F49087032E0F3
:1021500029480078F8B906221E492F4805F019FFD2
:102160002948007808B9012000E0002026490870BD
:1021700008460078012802D12249087002E00120B7
:10218000114908702048007898B11A480178114820
:10219000FEF72CFD0DE01848007808B9012000E09A
:1021A00000201549087001200749087000201649D1
:1021B000087000E000BF00BF1348007880B30548F6
:1021C0008088164908802FE0A80000204C010020DC
:1021D000503A00001C020020253034647573000062
:1021E00062020020253034646D73000025303264B3
:1021F00000000000A2000020A7000020A300002093
:10220000A5000020A9000020AA0000202401002031
:10221000A6000020260100200CF003088C000020FE
:10222000FFE700206A4908806948B0F9000040F2E1
:10223000E731884202DB0846654908806448B0F906
:102240000000002802DC0020614908806148007815
:1022500030B361488089401C00B25F4988810846DC
:10226000B0F90C00B1F90210884204DA5A48008B28
:102270005949888324E05848B0F902005649B1F919
:10228000061008445449B1F90C10884204DD524844
:10229000C08A5149888313E000204F4988810FE0AC
:1022A0004E48007830B100204B4988810846408B69
:1022B000888305E00020484988810846808A888311
:1022C0004548808B81B2464804F020F904F07CFF39
:1022D00006287FF400AD06223F49424805F059FE2A
:1022E0000020414908804149088006B0BDE8F087D8
:1022F00000203F4908703F49087068E000213848D5
:1023000004F004F93CA1414806F030F840A13F48F0
:10231000113006F02BF843A13C48223006F026F895
:1023200045A13A48333006F021F848A137484430F7
:1023300006F01CF84AA13548553006F017F84DA1B3
:102340003248663006F012F84FA13048773006F078
:102350000DF852A12D48883006F008F8002005F04D
:1023600004F9002208212948FEF770FE04460520E2
:10237000FEF79BFB0520FEF7B1FB082C25D2DFE81A
:1023800004F004080C1014181C202046FEF755FF1A
:102390001CE02046FFF748FC18E0204601F03BFE19
:1023A00014E0204602F0FAF810E0204601F0EAFAC4
:1023B0000CE0204600F07CF808E0204600F081FBAD
:1023C00004E0204600F079FE00E000BF00BF95E782
:1023D0008C000020A70000201C020020AA00002082
:1023E000002C01400CF003082401002026010020ED
:1023F0005A00002059000020313A426C6F77657214
:1024000042694C5465737420000000004C010020A8
:10241000323A426C6F7765722D4E4F4E414D4520DA
:1024200000000000333A494E41323236546573742D
:102430002020202000000000343A5344503830302F
:10244000546573742020202000000000353A427249
:10245000616F43616C696272617465200000000005
:10246000363A43584420373035342020202020206D
:1024700000000000373A424F524541534120433655
:102480003853312000000000383A4E6964656320FB
:10249000544630323942202000000000393A546F4F
:1024A000646F6C6973745F5465737420000000007E
:1024B0002DE9F04F89B00020089082460027059052
:1024C0000224049080468146FD490870FD49087049
:1024D0000120FD4908700020FC4908700420FC49D7
:1024E0000870FC4908700020FB490880FB4908601F
:1024F00001F052FC01F0F4F9002005F036F8012358
:10250000F7A20021084605F0B3FC01200823F7A23A
:1025100006210090782005F0D1F901200623F4A2CD
:1025200007210090002005F0C9F90020F249086059
:102530004860F248C8600020086148618861F0483E
:10254000086200204862C862EE48086348630020C1
:102550008863C86300236207EB49EC4805F08CFDF3
:1025600000234FF07E52E849E94805F085FD96E2E8
:10257000E848007800287DD0E74800780A287AD11A
:10258000E6480078E6490870E4488078E3494978ED
:1025900040EA0120E3490880E048007ADF49C97930
:1025A00040EA0120E04908600020DA490870DF486D
:1025B000006808B9012000E00020DC490860DA4822
:1025C000006806F0C5FCD14988610A4691695068E7
:1025D00006F01EFD8346CD4A9168106806F018FD8E
:1025E0005946039006F048FBC8498860CE48006809
:1025F00006F0AEFCC64988610A469169506806F04B
:1026000007FD8346C24A9168106806F001FD5946ED
:10261000039006F031FBBE498860BC49886806F02B
:102620005BFCC3490860AD4800686043642190FBCF
:10263000F1FB584606F08CFCAF494860BC48006886
:1026400006F086FC8346AC484168584606F0DDFD3E
:10265000A94988600A469168D06806F0D9FCA64965
:1026600008610A46D16A506B06F0D2FCA24A039078
:10267000116901E077E072E0106B06F0C9FC02908E
:10268000039906F0F9FA83469B484169584606F0DB
:10269000F3FA994948610A46D16B106906F0C0FD0A
:1026A00083469548816B584606F0B2FC9249886192
:1026B0000A465169106906F0DFFA83468E4881693F
:1026C000584606F0D9FA8C49C8610A46116AD069A1
:1026D00006F06AFD02D28848006A0AE0864A516A1A
:1026E000D06906F061FC02D28348406A01E082486A
:1026F000C069814988620A46D169906A06F090FDF6
:102700007D49C86208460069C863886A06F0E4FB30
:1027100000B271490880012006210523CDE900108F
:102720006D48B0F90020002005F01BF97849886851
:102730004FF07C5106F0A0FA039006F0CDFB642127
:1027400091FBF4F100FB01FB0120082105235A460F
:10275000CDE900100621502005F003F99FE100208B
:102760006C4908709BE173480078002846D0724895
:10277000007808283ED1714840797049097940EACB
:10278000012600206B4908706C48C0786C49C870FD
:1027900008F101001FFA80F86848C078012806D0C7
:1027A000022809D003280DD0042815D10FE04B488A
:1027B00006600120059010E00020484908600120D3
:1027C00005900AE0012004904FF0650A05E0002022
:1027D00004900120059000E000BF00BF0120062109
:1027E0000523CDE900103D4807210268002005F0CF
:1027F000B8F854E100204F49087050E15148006892
:102800000A28ABD900204F490860059830B1002054
:10281000059008224A494C4802F08FF95046411C65
:1028200001F0FF0A19284ADD4FF0000A0FB9012014
:1028300000E0002007460FB3049800281DD034495B
:1028400088684FF07C5106F017FA834606F044FB87
:102850000646642090FBF4F07043000A3B4908717F
:10286000642090FBF4F0704348710822364802F06F
:1028700064F909F101001FFA80F994E006A907A89C
:1028800001F085FBBDF81C0006F07AFB304903908F
:1028900006F060FA8346012008212EA20223CDE92A
:1028A0000032CDE902105A460421002005F0C3F899
:1028B000BDF9180006F04CFB274903904EE05FE09D
:1028C000E7000020E8000020E9000020EA000020E6
:1028D000E5000020E6000020E0000020EC000020E1
:1028E00043584420373035343A000000520000008D
:1028F0002D2D2D2D2D0000002C040020CDCC4C3F83
:1029000000C07944CDCC4C3E6F12033DE40300205F
:1029100008040020080100200A0100206C040020A7
:10292000CC000020CE000020D000002098012242E0
:10293000D4000020090100200D01002034050020F2
:10294000AC0000201C00002000380140B600002030
:102950000000C8425600000000007A4406F0FAF970
:10296000834601200821FEA20323CDE90032CDE9F0
:10297000021002235A460421482005F05CF812E0B8
:102980000120062105234246CDE90010282004F04D
:10299000E8FF0120062105234A46CDE90010072162
:1029A000282004F0DEFF04F029FC05462846022D0D
:1029B0004DD0072804D0082824D0092853D14CE052
:1029C000E8480168E848B0F90000401CA1EB40105D
:1029D000E449086008460068002801DA0020086021
:1029E0000020E1490880012006210523CDE90010DF
:1029F000DC4807210268002004F0B3FF0120DB4916
:102A0000087031E0D7480168D948B0F90000401C8F
:102A100001EB4010D3490860084600684AF6C871C7
:102A2000884202DD0846CF4908600020D04908806E
:102A3000012006210523CDE90010CA4807210268BC
:102A4000002004F08EFF0120C84908700CE000202F
:102A5000C8490870C849087006E00020C5490870D8
:102A6000C549087000E000BF00BFC448B0F90000CD
:102A700040F2E731884202DB0846C0490880BF487F
:102A8000B0F90000002802DC0020BC490880BB48E7
:102A9000008800F57A7081B2B94803F037FD04F080
:102AA00093FB06287FF464AD0020AF490880B0494D
:102AB00008804FF47A71B24803F028FD09B0BDE8F0
:102AC000F08F2DE9F04F89B0002008908246002752
:102AD00005900124049080468146AA490870A549C2
:102AE00008700120A14908700020A3490870042043
:102AF000A5490870A54908700020A0490880994997
:102B0000086001F049F900F0EBFE002004F02DFD13
:102B100001239FA20021084605F0AAF901200823FD
:102B2000AFF2382206210090782004F0C7FE012081
:102B30000623AFF2442207210090002004F0BEFEDD
:102B400000209749086048609648C86000200861E6
:102B5000486188619448086200204862C8629348CE
:102B60000863486300208863C8630023A207904974
:102B7000904805F081FA00234FF07E528C498E4830
:102B800005F07AFA87E28D48007800287ED08C48DC
:102B900000780A287BD18B4800788B4908708948D7
:102BA00080788849497840EA01208849088085482A
:102BB000007A8449C97940EA0120854908600020EB
:102BC0007E4908708348006808B9012000E00020B1
:102BD000804908607E48006806F0BAF97549886146
:102BE0000A469169506806F013FA8346714A916863
:102BF000106806F00DFA5946039006F03DF86D494D
:102C000088607348006806F0A3F96B4988610A463A
:102C10009169506806F0FCF98346674A916810682C
:102C200006F0F6F95946039006F026F862498860E6
:102C30006049886806F050F96749086049480068AB
:102C40006043642190FBF1FB584606F081F954493A
:102C500048606148006806F07BF983465048416847
:102C6000584606F0D2FA4E4988600A469168D06804
:102C700006F0CEF94A4908610A46D16A506B06F05F
:102C8000C7F9474A03901169106B01E0B5E0B0E065
:102C900006F0BEF90290039905F0EEFF8346404826
:102CA0004169584605F0E8FF3D4948610A46D16B45
:102CB000106906F0B5FA83463948816B584606F02C
:102CC000A7F9374988610A465169106905F0D4FFB0
:102CD000834633488169584605F0CEFF3049C861C4
:102CE0000A46116AD06906F05FFA02D22C48006ADF
:102CF0000AE02B4A516AD06906F056F902D22848F8
:102D0000406A01E02648C069254988620A46D169BF
:102D1000906A06F085FA2249C86208460069C863CD
:102D2000886A06F0D9F800B214490880012006210B
:102D30000523CDE900101148B0F90020002004F06F
:102D400010FE1D4988684FF07C5105F095FF0390F7
:102D500006F0C2F8642191FBF4F100FB01FB3DE0B9
:102D600041000000EC00002024010020E9000020C8
:102D700026010020E8000020EA000020E0000020FA
:102D8000002C0140E7000020E5000020E6000020C4
:102D9000424F52454153412043363853313A0000A7
:102DA0002C040020CDCCCC3F00C07944CDCC4C3E8F
:102DB0006F12033DE40300200804002008010020F6
:102DC0000A0100206C040020CC000020CE0000206E
:102DD000D000002098012242D400002001200821C8
:102DE00005235A46CDE900100621502004F0B9FD14
:102DF00051E10020FE4908704DE1FE4800780028AE
:102E000046D0FD48007808283ED1FC484079FB496F
:102E1000097940EA01260020F6490870F748C07891
:102E2000F749C87008F101001FFA80F8F348C0782C
:102E3000012806D0022809D003280DD0042815D176
:102E40000FE0F04806600120059010E00020ED49F9
:102E50000860012005900AE0012004904FF0650A07
:102E600005E0002004900120059000E000BF00BFB5
:102E7000012006210523CDE90010E2480721026860
:102E8000002004F06EFD06E10020DA49087002E13E
:102E9000DD4800680A28ABD90020DB4908600598A6
:102EA00030B1002005900822D549D84801F045FEF0
:102EB0005046411C01F0FF0A19285DDD4FF0000A61
:102EC0000FB9012000E0002007460FB30498002846
:102ED00065D0CF4988684FF07C5105F0CDFE834620
:102EE00005F0FAFF0646642090FBF4F07043000AF8
:102EF000C8490871642090FBF4F0704348710822BF
:102F0000C24801F01AFE09F101001FFA80F946E0FB
:102F100006A907A801F03BF8BDF81C0006F030F840
:102F2000BD49039005F016FF834601200821AFF24A
:102F3000DC520223CDE90032CDE902105A460421C9
:102F4000002004F078FDBDF9180006F001F8B3493F
:102F5000039005F0FFFE834601200821AFF2002216
:102F60000323CDE90032CDE9021002235A460421A1
:102F7000482004F060FD12E00120062105234246AE
:102F8000CDE90010282004F0ECFC012006210523E7
:102F90004A46CDE900100721282004F0E2FC04F0A5
:102FA0002DF905462846022D4DD0072804D00828C3
:102FB00024D0092853D14CE0924801689848B0F9D0
:102FC0000000401CA1EB40108E49086008460068D4
:102FD000002801DA002008600020914908800120C3
:102FE00006210523CDE9001086480721026800204C
:102FF00004F0B7FC01208B49087031E0814801687A
:103000008948B0F90000401C01EB40107D49086080
:10301000084600684AF6C871884202DD08467949C8
:103020000860002080490880012006210523CDE9A1
:103030000010744807210268002004F092FC01206F
:10304000784908700CE000207849087078490870C9
:1030500006E00020754908707549087000E000BF5F
:1030600000BF7448B0F9000040F2E731884202DB4B
:103070000846704908806F48B0F90000002802DC5B
:1030800000206C4908806B48008800F57A7081B296
:10309000694803F03BFA04F097F806287FF473AD13
:1030A00000205F490880604908804FF47A716248C7
:1030B00003F02CFA09B0BDE8F08F2DE9F04F89B08C
:1030C0000020089082460027059002240490804644
:1030D00081465A49087055490870012051490870C5
:1030E000002053490870042055490870554908705C
:1030F0000020504908804349086000F04DFE00F070
:10310000EFFB002004F031FA01234FA20021084612
:1031100004F0AEFE012008234FA206210090782083
:1031200004F0CCFB00204D49086048604C48C86062
:1031300000200861486188614A48086200204862AE
:10314000C86249480863486300208863C863002355
:1031500062074649464804F08FFF00234FF07E5235
:1031600042492B4804F088FFC1E22148007800283A
:103170003CD0404800780A2839D13F4800783F4980
:1031800008703D4880783C49497840EA01203C4934
:1031900008803948007A3849C97940EA012039491C
:1031A00008600020124908703748006808B90120FB
:1031B00000E00020344908603248006805F0C8FE8D
:1031C0002B4988610A469169506805F021FF8346C2
:1031D000274A9168106805F01BFF5946039005F0D7
:1031E0004BFD23498860274800684FE006E101E174
:1031F00008010020090100200D01002034050020F5
:10320000AC000020EC0000201C0000200038014031
:1032100008040020B60000200000C84200007A44E4
:1032200024010020E900002026010020E800002001
:10323000EA000020E0000020002C0140E700002010
:10324000E5000020E60000204E69646563205446D6
:10325000303239423A00000052504D002C04002018
:103260009A99193F00C07944CDCCCC3D6F12033DF3
:10327000E40300200A0100206C040020CC000020A0
:10328000CE000020D00000209801224205F060FE10
:10329000FE4988610A469169506805F0B9FE834687
:1032A000FA4A9168106805F0B3FE5946039005F09C
:1032B000E3FCF6498860F649886805F00DFEF5499B
:1032C0000860F54800686043642190FBF1FB5846B4
:1032D00005F03EFEF1494860EE48006805F038FE12
:1032E0008346EE484168584605F08FFFEB498860F9
:1032F0000A469168D06805F08BFEE84908610A46E5
:10330000D16A506B05F084FEE44A03901169106B9A
:1033100005F07EFE0290039905F0AEFC8346DF487F
:103320004169584605F0A8FCDC4948610A46D16B62
:10333000106905F075FF8346D848816B584605F043
:1033400067FED64988610A465169106905F094FC08
:103350008346D2488169584605F08EFCCF49C86142
:103360000A46116AD06905F01FFF02D2CB48006AF5
:103370000AE0CA4A516AD06905F016FE02D2C7486F
:10338000406A01E0C548C069C44988620A46D169FB
:10339000906A05F045FFC149C86208460069C863E4
:1033A000886A05F099FD00B2BD4908800120062118
:1033B0000523CDE90010BA48B0F90020002004F040
:1033C000D0FAB24988684FF07C5105F055FC039063
:1033D00005F082FD642191FBF4F100FB01FB01206B
:1033E000062105235A46CDE900100721002004F0EC
:1033F000B8FA7CE10020AB49087078E1AA4800786F
:10340000002846D0A948007808283ED1A84840792D
:10341000A749097940EA01260020A3490870A44879
:10342000C078A449C87008F101001FFA80F8A048CC
:10343000C078012806D0022809D003280DD004281E
:1034400015D10FE0944806600120059010E000209F
:1034500091490860012005900AE0012004904FF096
:10346000650A05E0002004900120059000E000BFFF
:1034700000BF012008210523CDE900108648062160
:103480000268502004F06DFA31E10020864908708E
:103490002DE1894800680A28ABD9002086490860D8
:1034A000059830B10020059008228249834801F038
:1034B00044FB5046411C01F0FF0A19285DDD4FF026
:1034C000000A0FB9012000E0002007460FB304985E
:1034D000002865D06D4988684FF07C5105F0CCFB21
:1034E000834605F0F9FC0646642090FBF4F0704337
:1034F000000A73490871642090FBF4F0704348712E
:1035000008226E4801F019FB09F101001FFA80F949
:1035100046E006A907A800F03AFDBDF81C0005F03A
:103520002FFD6849039005F015FC83460120082112
:10353000AFF6E0320223CDE90032CDE902105A465F
:103540000421002004F077FABDF9180005F000FD11
:103550005D49039005F0FEFB834601200821AFF68C
:1035600000020323CDE90032CDE9021002235A46BE
:103570000421482004F05FFA12E00120062105230F
:103580004246CDE90010282004F0EBF90120062185
:1035900005234A46CDE900100721282004F0E1F96F
:1035A00003F02CFE05462846022D4DD0072804D0F6
:1035B000082824D0092853D14CE0374801684348F3
:1035C000B0F90000401CA1EB4010334908600846E8
:1035D0000068002801DA0020086000203B490880CC
:1035E000012008210523CDE900102B48062102689F
:1035F000502004F0B6F901203549087031E0264822
:1036000001683448B0F90000401C01EB4010224929
:103610000860084600684CF25031884202DD0846D6
:103620001D49086000202B4908800120082105233E
:10363000CDE90010184806210268502004F091F9E5
:103640000120234908700CE0002023490870234919
:10365000087006E00020204908702049087000E04A
:1036600000BF00BF0E48B0F9000040F2E7318842C9
:1036700002DB08460A4908800948B0F90000002822
:1036800002DC002006490880054829E008040020E3
:10369000E4030020D4000020EC0000202C040020D3
:1036A000E000002008010020090100200D01002099
:1036B00034050020AC0000201C0000200038014030
:1036C000B60000200000C84200007A442401002017
:1036D000E900002026010020E8000020EA00002088
:1036E000008800F57A7081B20A4802F00FFF03F0FB
:1036F0006BFD06287FF439AD002007490880074993
:1037000008804FF47A71034802F000FF09B0BDE869
:10371000F08F0000002C0140240100202601002031
:1037200000B587B001214FF4836001F0BFFD4FF475
:10373000404001F01FFD2020ADF8040000208DF86E
:10374000070001A9D24801F0F5FAD24802F0B2FF11
:10375000002002908DF80C008DF80D004FF46020D1
:1037600004900020059001208DF8180002A9C94896
:1037700002F0C7FF0121C74802F0EFFFC54803F080
:103780000EF800BFC34803F00FF80028FAD1C14873
:1037900003F014F800BFBF4803F015F80028FAD171
:1037A000072301220F21BB4803F043F807B000BDF7
:1037B0002DE9F04104460026002517E00121B54817
:1037C00003F00BF800BF0221B24803F077F900289C
:1037D000F9D0B04803F094F8804605F0D1FB0746D5
:1037E000314605F049FA0646681CC5B20A2DE5DDEA
:1037F000A949304605F040FA0746A84905F0AAFA5B
:103800000646304605F068FB00B22080BDE8F08136
:103810002DE9FC5F0546A2480088A84202DAA148CB
:10382000BDE8FC9F9E48B0F85200A84202DB40F27F
:10383000DC50F5E7002439E0994830F81400A8423C
:1038400032DB9749601C31F81000A8422CDA31F8BD
:1038500014200B46611C33F81110501A05F078FB48
:1038600083468F4931F81410481B05F071FB594607
:10387000009005F06FFA82468B4905F0C9FB81463E
:1038800004EB8401A1F1370005F062FB4946019089
:1038900005F0F2F98046854905F0BAFB074605F0C8
:1038A0001BFB06B23046BBE7601C44B2292CC3DBCD
:1038B00000BFFEE72DE9F0410446204605F048FB35
:1038C00007467B480168384605F0A2FB0646794862
:1038D0000168304605F0D0F905462846BDE8F0817C
:1038E0002DE9F84300250020734908806846FFF75A
:1038F0005FFF6846FFF75CFF6846FFF759FF6846C1
:10390000FFF756FF6846FFF753FF6846FFF750FF83
:103910006846FFF74DFF6846FFF74AFF00240AE0BC
:103920006846FFF745FFBDF9000005440A20FDF792
:10393000BCF8601C44B20A2CF2DB284605F020FBE0
:103940008046594905F098F90746584905F002FAAA
:10395000064605F0C1FA00B257490880BDE8F88371
:1039600038B56846FFF724FFBDF8000052490988C2
:10397000401A00B20090BDF90000FFF79BFF04461B
:10398000204638BD70B586B006460024002003F0FE
:10399000ECFD0120062349A219460090002003F007
:1039A0008DFF0120062347A207210090002003F08D
:1039B00085FF012344A20621322004F059FA012296
:1039C0003D49434804F0D4FA3B480078FF2807D12A
:1039D00039480088C0F30720FF2801D1FFF780FF96
:1039E000012006210423CDE900103348B0F900205E
:1039F000182003F0B6FF3FE0364800680A283BD99C
:103A00000020344908602046611CCCB20A281DDD24
:103A1000002405A8FFF7CCFE012006210423CDE9F0
:103A20000010BDF914200721182003F09AFFFFF7BA
:103A300097FF05460120062127A2CDE900020223B7
:103A40002A46CDE90210562003F0F5FF03F0BCFB37
:103A5000022811D1FFF744FF012006210423CDE9FC
:103A600000101548B0F90020182003F07AFF012259
:103A70001149174804F08DFA03F0A6FB0628BBD1C4
:103A80000020164908801649088006B070BD000065
:103A900000100140002801400000B040000030410B
:103AA0000A930008DAFDFFFF0000A040000020415B
:103AB000F4000020F8000020F000002043616C6951
:103AC0000000000052617700E58E8BE58A9B3A008A
:103AD00012F003081C000020636D48002401002040
:103AE00026010020002002E000BF411CC8B20A28C5
:103AF000FADB704710B50120FE490860FE49C1F8A5
:103B0000AC01FFF7EFFF10BD10B50120F949091D09
:103B10000860F949C1F8A801FFF7E4FF0020F54962
:103B2000091D0860FFF7DEFF0020F349C1F8A80176
:103B300010BD10B50020EF49091D08600120EE49B5
:103B4000C1F8A801FFF7CEFF0120EA49091D08606E
:103B5000FFF7C8FF10BD10B50024E848006820F446
:103B60007040E64908600846006840F4004008607C
:103B70000120E049091D0860FFF7B4FF0120DE497C
:103B8000C1F8A80103E0601CC4B2FFF7ABFFD9483D
:103B90007C38006808B1052CF5D30020D5490860B1
:103BA000D648006820F47040D44908600846006890
:103BB00040F440500860204610BD10B50446012C6A
:103BC00011D10020CB49091D0860CC48006820F4C1
:103BD0007040CA4908600846006840F440500860D8
:103BE000FFF780FF10E00120C249091D0860C348AB
:103BF000006820F47040C14908600846006840F43D
:103C000040500860FFF76EFF0120BA490860FFF7D7
:103C100069FF0020B849C1F8A80110BD70B504467D
:103C2000254600261AE005F0800020B10120B149A8
:103C3000091D086003E00020AE49091D0860FFF778
:103C400051FF0120AB490860FFF74CFF6806050EE5
:103C50000020A949C1F8A801701CC6B2082EE2DBF9
:103C6000FFF779FF70BD70B50646A448006820F4E0
:103C70007040A24908600846006840F400400860AF
:103C800001209C49091D0860FFF72CFF002513E067
:103C90006006040E012097490860FFF723FF96484D
:103CA000D0F82C0108B144F00104002091490860CB
:103CB000FFF718FF681CC5B2082DE9DB3046FFF797
:103CC0007CFF204670BD70B506460C461546FFF7D2
:103CD0001BFF3046FFF7A2FF2046FFF79FFF284655
:103CE000FFF79CFFFFF725FF70BD70B504460D463A
:103CF000FFF70AFF2046FFF791FF2846FFF78EFFE8
:103D0000FFF702FF611CC8B2FFF788FF0020FFF732
:103D1000AAFF70BD70B504460025FFF7F5FE8020B0
:103D2000FFF77CFF0520FFF779FF25122846FFF7F4
:103D300075FFE5B22846FFF771FFFFF7FAFE70BD89
:103D40002DE9F041044600256D49204605F060F953
:103D5000074639466B4804F0FDFF064605F0D8F8E3
:103D600085B22846FFF7D6FFBDE8F08170B504465E
:103D70000025FFF7C9FE8020FFF750FF0020FFF766
:103D80004DFF25122846FFF749FFE5B22846FFF709
:103D900045FFFFF7CEFE70BD08B50121082001F0F8
:103DA00085FA4FF44060ADF8000003208DF8020062
:103DB00010208DF8030069465048001F00F0BAFF3C
:103DC000FFF798FE44F62730FFF7D0FF02224E4956
:103DD0004E4804F0CDF84C480078FF2803D14A48FB
:103DE0004078FF2805D048490868494905F0DCF8C3
:103DF00002D848484449086043490868FFF7A0FFD3
:103E000008BD2DE9F047FFF77FFE8020FFF706FF92
:103E10000120FFF703FFFFF777FE8120FFF7FEFE8B
:103E20000120FFF720FF82464FF6FF7000EA0A2AC2
:103E30000020FFF718FF40EA0A0AFFF77AFE504613
:103E400004F008FE06460022334B04F017FE044639
:103E50000022324B04F0A6FC804604F071FCBDE861
:103E6000F0872DE9F047FFF74FFE8020FFF7D6FEE1
:103E70000220FFF7D3FEFFF747FE8120FFF7CEFEBB
:103E80000120FFF7F0FE82464FF6FF7000EA0A2A93
:103E90000020FFF7E8FE40EA0A0AFFF74AFE504614
:103EA00004F0D8FD064600221D4B04F0E7FD044651
:103EB00000221A4B04F076FC804604F041FCBDE879
:103EC000F08770B5FFF720FE8020FFF7A7FE0320E4
:103ED000FFF7A4FEFFF718FE8120FFF79FFE0120E9
:103EE000FFF7C1FE04464FF6FF7000EA04240020ED
:103EF00018E00000A881214200802142040C01400A
:103F0000000020410000A045FC0000200EF0030846
:103F1000ACC52737E926813F0000044000408F40B0
:103F20000000F43FFFF79FFE0443FFF702FE04EB9F
:103F3000C40000EB04104FF47A7190FBF1F52846B1
:103F400005F006F870BD70B5FFF7DEFD8020FFF7C5
:103F500065FE0420FFF762FEFFF7D6FD8120FFF724
:103F60005DFE0120FFF77FFE04464FF6FF7000EA7A
:103F700004240020FFF777FE0443FFF7DAFD4FF437
:103F80007A7094FBF0F5284604F0E2FF70BD70B53E
:103F900004460D46FFF7B8FD8020FFF73FFE0220E4
:103FA000FFF73CFEFFF7B0FD8120FFF737FE012051
:103FB000FFF759FE208020884FF6FF7101EA0020AC
:103FC00020800020FFF74FFE218808432080FFF764
:103FD000B0FD2088C0102080FFF796FD8020FFF7FD
:103FE0001DFE0420FFF71AFEFFF78EFD8120FFF76C
:103FF00015FE0120FFF737FE28802878000200B266
:1040000028800020FFF72FFEB5F900100843288014
:10401000FFF78FFD70BD2DE9F04186B00746002502
:10402000002003F0A2FAFFF7B7FE0120082381A2C7
:1040300002210090002003F041FC01200821002211
:104040000423CDE90032CDE902107D480223194650
:104050000268482003F0EFFCDEE07A4800680A2896
:10406000FAD90020774908602846691CCDB20F288C
:1040700031DD002504A905A8FFF789FFBDF814006C
:1040800004F07EFF8046704904F064FE064601207D
:1040900008216EA20223CDE90032CDE9021032469A
:1040A0000021084603F0C7FCBDF9100004F050FFE2
:1040B0008046674904F04EFE06460120082165A2AD
:1040C0000323CDE90032CDE902100223324600215C
:1040D000482003F0B0FC6048007878B100205E49C9
:1040E000087008210423CDE90030CDE902105448BE
:1040F000022319460268482003F09DFC03F07EF875
:1041000004462046072C04D0082834D009287AD148
:104110005AE05248007818B900205149088029E037
:10412000474908684F4904F073FF454908604C4807
:10413000B0F90000401C04F00BFF0646404801683F
:10414000304605F062F83E4908600868002104F036
:104150002BFF02D200203A490860394908684149DA
:1041600004F0F8FD3649086000203D490880012030
:10417000394908704FE03948007818B900203A49A9
:10418000088020E02E490868364904F041FF2C4998
:1041900008603548B0F90000401C04F0D9FE06461E
:1041A00027480168304604F067FD25490860086823
:1041B0002C4904F0CFFD2249086000202A490880DC
:1041C00001202549087026E024480078E0B1022249
:1041D0001B49264803F0DDFE0120082100220423AC
:1041E000CDE90032CDE902101548022319460268D4
:1041F000482003F020FC0020184908701049086886
:10420000FFF79EFD05E005E0012013490870134902
:10421000087000E000BF00BF02F0D6FF06287FF460
:104220001CAF00200E4908800F49088006B0BDE889
:10423000F081000043616C6962496E640000000017
:10424000FC0000201C0000200000C84256000000B6
:1042500000007A444100000001010020020100201A
:104260002401002000401C46260100200EF0030817
:10427000002002E000BF411CC8B20A28FADB7047E8
:1042800010B50120FE490860FE49C1F89C01FFF706
:10429000EFFF10BD10B50120F949091D0860F9496B
:1042A000C1F89801FFF7E4FF0020F549091D0860F7
:1042B000FFF7DEFF0020F349C1F8980110BD10B5EB
:1042C0000020EF49091D08600120EE49C1F898015E
:1042D000FFF7CEFF0120EA49091D0860FFF7C8FF7C
:1042E00010BD10B50024E848006820F07040E64991
:1042F00008600846006840F0004008600120E0497E
:10430000091D0860FFF7B4FF0120DE49C1F89801DC
:1043100003E0601CC4B2FFF7ABFFD9487C380068EB
:1043200008B1052CF5D30020D5490860D6480068AF
:1043300020F07040D44908600846006840F04050C2
:104340000860204610BD10B50446012C11D1002094
:10435000CB49091D0860CC48006820F07040CA496C
:1043600008600846006840F040500860FFF780FF92
:1043700010E00120C249091D0860C348006820F010
:104380007040C14908600846006840F0405008602D
:10439000FFF76EFF0120BA490860FFF769FF0020B0
:1043A000B849C1F8980110BD70B5044625460026ED
:1043B0001AE005F0800020B10120B149091D086014
:1043C00003E00020AE49091D0860FFF751FF0120FE
:1043D000AB490860FFF74CFF6806050E0020A949AD
:1043E000C1F89801701CC6B2082EE2DBFFF779FF16
:1043F00070BD70B50646A448006820F07040A24920
:1044000008600846006840F00040086001209C49B0
:10441000091D0860FFF72CFF002513E06006040E5D
:10442000012097490860FFF723FF9648D0F81C0148
:1044300008B144F00104002091490860FFF718FF1B
:10444000681CC5B2082DE9DB3046FFF77CFF20462B
:1044500070BD70B506460C461546FFF71BFF30468B
:10446000FFF7A2FF2046FFF79FFF2846FFF79CFFBC
:10447000FFF725FF70BD70B504460D46FFF70AFF34
:104480002046FFF791FF2846FFF78EFFFFF702FF58
:10449000611CC8B2FFF788FF0020FFF7AAFF70BDBC
:1044A00030B502460B46FF2012E012F8014B604087
:1044B00008210BE000F0800424B1312484EA400498
:1044C000E0B201E04406200E4C1EE1B20029F1DC0E
:1044D0001C1EA3F10105EBB2E7D130BD10B50446B7
:1044E000FFF7D8FE4A20FFF75FFF2012FFF75CFFBF
:1044F000E0B2FFF759FFFFF7E2FE10BD38B5FFF756
:10450000C9FE4B20FFF750FF0120FFF772FF8DF827
:1045100000000120FFF76DFF8DF801000020FFF77C
:1045200068FF8DF80200FFF7CAFE9DF801009DF8B4
:10453000001000EB012004B2204638BD70B50446DF
:10454000FFF7A8FE4B20FFF72FFF002506E0012014
:10455000FFF74FFF2070641C681C05B2082DF6DBC6
:104560000020FFF746FF2070FFF7A9FE70BD08B5D9
:104570000121082000F09AFEC020ADF800000320C1
:104580008DF8020010208DF8030069463E4800F0C7
:10459000D1FB43F21560FFF7A1FF08BD2DE9F04103
:1045A00086B0804600270026002002F0DEFF0123AF
:1045B00036A20021084603F05BFC012335A202214C
:1045C000002003F055FC012334A20421002003F055
:1045D0004FFCFFF7CCFF6420FCF767FA03A8FFF756
:1045E000ADFF022103A8FFF75BFF9DF80E10884284
:1045F00006D19DF80D009DF80C1000EB012006B2CD
:104600000120082105233246CDE90010042128208D
:1046100003F0A7F902210DF10F00FFF741FF9DF80C
:104620001110884206D19DF810009DF80F1000EB84
:10463000012004B20120082105232246CDE9001003
:104640000021282003F08DF902210DF11200FFF75F
:1046500027FF9DF81410884206D19DF813009DF89D
:10466000121000EB012005B20120082105232A4683
:10467000CDE900100221382003F073F92CE000008E
:104680009881214200802142000C0140E6B8A9E552
:10469000BAA63A0053636C4663743A00E58E8BE524
:1046A0008A9B3A000620FFF719FF1420FCF7FDF95A
:1046B00043F21560FFF712FF6420FCF7F6F9FFF7ED
:1046C0001DFF06460120082105233246CDE90010D2
:1046D0000421282003F045F902F076FD0628E1D1F7
:1046E00006B0BDE8F0810000014600BF704700BF82
:1046F000FC4A128802F04002002AF9D0C2B2F94BFB
:104700001B1D1A80704710B586B004460121042095
:1047100000F0CCFD0121880300F0C8FD012108460E
:1047200000F0C4FD4FF40070ADF8140003208DF8C4
:10473000160018208DF8170005A9EB4800F0FAFACA
:104740004FF48060ADF8140048208DF8170005A9DB
:10475000E54800F0EFFA25208DF8000003208DF8E1
:1047600001008DF8020001208DF80300684600F07A
:1047700018FA4FF4964001900020ADF80800ADF80B
:104780000A00ADF80C00ADF810000C20ADF80E00DA
:1047900001A9D64800F031FE012240F22551D3484C
:1047A00000F0C3FE002240F22441D04800F0BDFEDC
:1047B0000121CE4800F0ADFE0121042000F076FD7D
:1047C0000121480400F07FFD0420ADF8140003200F
:1047D0008DF8160018208DF8170005A9C24800F0C2
:1047E000A9FA0820ADF8140048208DF8170005A993
:1047F000BD4800F09FFA26208DF8000003208DF8B8
:1048000001008DF8020001208DF80300684600F0D9
:10481000C8F901940020ADF80800ADF80A00ADF821
:104820000C00ADF810000C20ADF80E0001A9AD4849
:1048300000F0E3FD012240F22551AA4800F075FE88
:10484000012240F22441A74800F06FFE0121A54853
:1048500000F05FFE06B010BD10B5A448008800F05F
:10486000080020B1A149091D0988C8B200BF40F263
:1048700025519E4800F03EFFF8B19C4800F0BAFE7A
:10488000C4B29B480078A8B99A480068052802D9A4
:10489000002099490870984801780078401C964A91
:1048A00010709648445410460078082802D1012020
:1048B0008F49087000208F49086010BD70B503460D
:1048C0000C460020214604E05D5C45408C4E705D46
:1048D000491C9142F8DD70BD30B503460C460025F9
:1048E000214603E0585C2844C5B2491C9142F9DDD9
:1048F0006842C0B230BD10B50246002002E0137815
:104900005840521C0B1EA1F10104A1B2F7DC10BDEE
:1049100010B57448008800F0080020B17149091DE5
:104920000988C8B200BF40F224416E4800F0E2FEA0
:10493000002870D06B4800F05DFE724800780028B7
:104940006AD1714800782B2826D05A2873D16F4835
:104950000078401E81B26C48FFF7CDFF6B490978A3
:10496000491E694A515C884200D08AE06748007855
:10497000182809D112226449091D654803F01AFD5F
:1049800001206049087006E0604800780A2802D1DA
:1049900001205C49087074E05C4800780A2812D154
:1049A0005A480078401E82B200215748FFF786FF20
:1049B00056490978491E544A515C884203D1042063
:1049C000504908705DE051480078801EC2B2012154
:1049D0004D48FFF781FF4D490978491E4A4A515C0D
:1049E000884200D04DE0494800780A2803D10220CF
:1049F000444908702DE045480078082803D1032079
:104A00004049087025E041480078062805D1022079
:104A10003C4908701DE03EE038E03C48007826281C
:104A20000AD1122238490C31394803F0C3FC022064
:104A3000344908700DE00DE034480078162808D19C
:104A400012223149C91C324803F0B4FC03202D491D
:104A5000087016E02D4800780A2811D12B480078FC
:104A6000401E82B200212848FFF728FF2749097815
:104A7000491E254A515C884202D104202149087010
:104A800000BF00BF214800782249087000201F495C
:104A900008702149087040F22551124800F02AFEA2
:104AA000F0B1104800F0A6FDC4B22B2C09D11A4871
:104AB000007880F00100184908700846007800B9B5
:104AC00010BD124801780078401C104A10700E4842
:104AD000445410460078C82802DB002011460870B4
:104AE00000BFEDE7004400400008014000380140ED
:104AF00009010020180000200D01002034050020CD
:104B00005E930008080100206C0400200B010020C7
:104B1000E50100200A0100200C01002070B50446C8
:104B20000D4600BF8021204600F0CEFD0028F9D0C0
:104B30002946204600F05AFD70BD70B506460C4669
:104B4000154604E014F8011B3046FFF7E7FF281E66
:104B5000A5F10105F6D170BD094880470948004715
:104B6000FEE7FEE7FEE7FEE7FEE7FEE7FEE7FEE71D
:104B7000FEE7FEE704480549054A064B704700007A
:104B80006B03000831010008600E00206014002053
:104B9000601000206010002031490143314A11604B
:104BA000704770B5002100230F22C47804B32D4C48
:104BB000246804F4E064C4F5E064210AC1F104034C
:104BC000CA40447804FA03F184781440214309016F
:104BD000254C0678A155047804F01F050124AC404B
:104BE00005786D11AD0005F1E025C5F8004109E03B
:104BF000047804F01F050124AC401C4D06787611A2
:104C000045F8264070BD1A4A0A400243154B1B1F47
:104C10001A60704739B1134A121D12680243114BD2
:104C20001B1D1A6006E00F4A121D126882430D4BCD
:104C30001B1D1A607047042808D14FF0E021096954
:104C400041F004014FF0E022116107E04FF0E02154
:104C5000096921F004014FF0E02211617047000062
:104C60000000FA050CED00E000E400E080E100E067
:104C700080FFFF1F10B50446CC48844208D10121B3
:104C8000042000F02DFB0021042000F029FB46E069
:104C9000C748844208D10121082000F021FB0021EF
:104CA000082000F01DFB3AE0C248844208D10121EF
:104CB000102000F015FB0021102000F011FB2EE069
:104CC000BD48844208D10121202000F009FB0021C9
:104CD000202000F005FB22E0B848844208D10121E1
:104CE000402000F0FDFA0021402000F0F9FA16E023
:104CF000B348844208D10121802000F0F1FA00215C
:104D0000802000F0EDFA0AE0AE48844207D101218C
:104D1000801500F0E5FA0021A01500F0E1FA10BDC1
:104D200010B50121084600F0DBFA0021012000F057
:104D3000D7FA10BD2DE9F0410246002500260020DB
:104D400000230024002791F803C00CF00F0591F810
:104D500003C00CF0100CBCF1000F03D091F802C09E
:104D60004CEA050591F800C0BCF1000F31D0146881
:104D700000202BE04FF0010C0CFA00F3B1F800C05A
:104D80000CEA03069E4220D183004FF00F0C0CFA70
:104D900003F7BC4305FA03FC4CEA040491F803C092
:104DA000BCF1280F06D14FF0010C0CFA00FCC2F840
:104DB00014C00AE091F803C0BCF1480F05D14FF0D0
:104DC000010C0CFA00FCC2F810C0401C0828D1D31A
:104DD0001460B1F800C0BCF1FF0F34DD546800204E
:104DE0002EE000F1080C4FF0010808FA0CF3B1F8BE
:104DF00000C00CEA03069E4221D183004FF00F0C45
:104E00000CFA03F7BC4305FA03FC4CEA040491F8DE
:104E100003C0BCF1280F05D100F1080C08FA0CF80A
:104E2000C2F8148091F803C0BCF1480F07D100F11B
:104E3000080C4FF0010808FA0CF8C2F81080401C6A
:104E40000828CED35460BDE8F0814FF6FF71018091
:104E5000022181700421C1707047024600209368CE
:104E60000B400BB1012000E000207047014688682C
:104E700080B2704702460020D3680B400BB101207E
:104E800000E0002070470146C86880B270470161A9
:104E90007047416170470AB1016100E041617047AC
:104EA000C16070474FF480320A4382618161826140
:104EB00082698269704702460020434B18684FF6AA
:104EC0008073184040EA021008433F4B1860704757
:104ED0003E49C8617047F0B50A460023002400210E
:104EE000002500F00046B6F1004F02D1364EF169C0
:104EF00001E0354E7168C0F3034583B200F44016FB
:104F0000B6F5401F08D121F070612F4E766826F06B
:104F100070662D4F7E6012E000F48016B6F5801F9B
:104F200006D1032606FA05F4A14341F0706106E0BC
:104F3000460D360103FA06F6B14341F0706122B125
:104F4000460D360103FA06F6314300F00046B6F18D
:104F5000004F02D11C4EF16101E01B4E7160F0BDAB
:104F600030B500228B071C0F0F2303FA04F2164BF7
:104F700008338C1053F824309343134C08348D10AD
:104F800044F8253023468C1053F824308C07240F26
:104F900000FA04F423430C4C08348D1044F82530F7
:104FA00030BD0A49DC31086070470000000801404C
:104FB000000C0140001001400014014000180140A5
:104FC000001C014000200140000001400000204280
:104FD000DF48006840F00100DD490860084640688D
:104FE000DC490840DA49486008460068DA49084068
:104FF000D74908600846006820F480200860084609
:10500000406820F4FE0048604FF41F00886070473D
:10501000CF49096821F48031CD4A116011460968F1
:1050200021F480211160B0F5803F03D0B0F5802FCE
:105030000ED106E0C649096841F48031C44A1160C6
:1050400007E0C349096841F4A021C14A116000E0AA
:1050500000BF00BF704710B50146002200230020AA
:105060004A11012A02D1BA4C236806E0022A02D171
:10507000B74C236A01E0B64C636A01F01F020124B9
:1050800094401C400CB1012000E0002010BD38B558
:10509000002000900024002500BF3120FFF7DBFF37
:1050A00005460098401C00900098B0F5A06F01D014
:1050B000002DF2D03120FFF7CEFF08B1012400E02F
:1050C0000024204638BD01460020A14A106820F087
:1050D000F80040EAC10010607047A04908607047BE
:1050E000024600209A4B586820F47C1042EA0103E3
:1050F0001843974B586070479849086670470146B7
:105100000020934A506820F0030008435060704725
:105110008F48406800F00C007047014600208C4A20
:10512000506820F0F00008435060704701460020AE
:10513000874A506820F4E060084350607047014699
:105140000020834A506820F4605040EAC10050605B
:10515000704729B17E4A527A02437D4B5A7204E06D
:105160007B4A527A82437A4B5A7270477B49D831D4
:105170000860704701460020754A506820F440409E
:105180000843506070470021714A20321170704A04
:1051900082F82010012802D004280AD104E001215D
:1051A0006B4A2032117005E00521694A20321170E6
:1051B00000E000BF00BF704769490860704764495C
:1051C000096A0143624A11627047654944390860BF
:1051D000704730B500210022002400235C4D6D682B
:1051E00005F00C0121B1042905D0082923D105E0DF
:1051F0005C4D056022E05B4D05601FE0544D6D681D
:1052000005F47012524D6D6805F48034022505EBEB
:1052100092421CB9544D554305600BE04C4D6D68EE
:1052200005F400351DB1504D5543056002E04D4D6C
:105230005543056002E04B4D056000BF00BF444D83
:105240006D6805F0F0010909484D6B5C0568DD40AB
:1052500045603F4D6D6805F4E061090A434D6B5CA4
:105260004568DD4085603A4D6D6805F46051C90AB6
:105270003E4D6B5C4568DD40C560354D6D6805F49D
:105280004041890B3A4D6B5CC568B5FBF3F5056190
:1052900030BD29B12E4A526902432D4B5A6104E0B8
:1052A0002B4A526982432A4B5A61704729B1284AD6
:1052B00092690243264B9A6104E0254A926982432F
:1052C000234B9A61704729B1214AD2690243204B8E
:1052D000DA6104E01E4AD26982431D4BDA617047ED
:1052E00029B11B4AD2680243194BDA6004E0184A1C
:1052F000D2688243164BDA60704729B1144A1269AA
:105300000243134B1A6104E0114A12698243104BA5
:105310001A61704712494039086070470F49C864E4
:1053200070470B49C87170470948406A40F0807067
:1053300007494862704701460020054A92680A40C2
:105340000AB1012000E000207047014988727047CF
:10535000001002400000FFF8FFFFF6FE000042428E
:105360008004424200127A0000093D000E01002034
:105370001E01002010B50446FB48844209D10121DA
:105380008803FFF7ADFF00214FF48040FFF7A8FF2F
:1053900032E0F648844209D101214804FFF7ADFF0D
:1053A00000214FF40030FFF7A8FF25E0F0488442C9
:1053B00009D101218804FFF7A0FF00214FF48020CC
:1053C000FFF79BFF18E0EB48844209D10121C80494
:1053D000FFF793FF00214FF40020FFF78EFF0BE053
:1053E000E548844208D101210805FFF786FF002126
:1053F0004FF48010FFF781FF10BD2DE9F04786B014
:1054000005460E460024A24600BFA1460027B089EB
:1054100000B100BF2F462C8A4CF6FF700440F08884
:1054200004432C82AC894EF6F3100440B0883189D5
:105430000843718908430443AC81AC8A4FF6FF40AE
:105440000440B0890443AC8201A8FFF7C2FEC648FD
:10545000874202D1DDF810A001E0DDF80CA0A88998
:1054600000F4004040B10AEBCA0000EB0A103168BA
:105470004900B0FBF1F807E00AEBCA0000EB0A10A4
:1054800031688900B0FBF1F86420B8FBF0F004014A
:105490002009642101FB1089A88900F4004040B173
:1054A000322000EBC900B0FBF1F000F0070004432C
:1054B00008E0322000EB09106421B0FBF1F000F0AD
:1054C0000F0004432C8106B0BDE8F0874FF416515D
:1054D000016000218180C18001810C214181002176
:1054E0008181704710B502460020108A4FF2FF03F9
:1054F00018400B884C8823438C882343CC88234353
:105500001843108210BD0021018041808180C1803C
:10551000704721B1828942F40052828104E082897D
:105520004DF6FF731A4082817047F0B503460024A0
:1055300000260025002040F66A17B94200D100BFBE
:105540001846C1F3421401F01F06012707FA06F5B9
:10555000012C01D10C3004E0022C01D1103000E00C
:1055600014301AB107682F43076002E00768AF43A1
:105570000760F0BD1AB1838A0B43838202E0838AFD
:105580008B4383827047028A4FF6F0731A4002827F
:10559000028A0A430282704782894FF2FF731A40DF
:1055A000828182890A438281704721B1828942F0D7
:1055B0000202828104E082894FF6FD731A408281E3
:1055C0007047028A4FF6DF731A400282028A0A434A
:1055D0000282704721B1028A42F48042028204E0D2
:1055E000028A4BF6FF731A4002827047C1F3080229
:1055F0008280704701468888C0F30800704781891F
:1056000041F0010181817047028BD2B20283028B8B
:1056100042EA012202837047028B02F47F42028336
:10562000028B0A430283704721B1828A42F0200232
:10563000828204E0828A4FF6DF731A4082827047CA
:1056400021B1828A42F01002828204E0828A4FF6FF
:10565000EF731A408282704721B1828A42F00802B9
:10566000828204E0828A4FF6F7731A408282704782
:1056700021B1828942F40042828103E08289C2F32F
:105680000E028281704721B1828A42F400628282D6
:1056900004E0828A4FF2FF731A4082827047828A46
:1056A0004FF6FB731A408282828A0A4382827047D5
:1056B00021B1828A42F00202828204E0828A4FF69D
:1056C000FD731A408282704702460020B1F5007FC8
:1056D00000D100BF13880B400BB1012000E0002077
:1056E000704701F40072B2F5007F00D100BFCA43D9
:1056F0000280704770B50246002400230025002078
:1057000040F66A16B14200D100BFC1F3421501F064
:105710001F03012606FA03F3012D02D196893340B7
:1057200006E0022D02D1168A334001E0968A33400A
:105730000C12012606FA04F41688344013B10CB199
:10574000012000E0002070BD10B50022002340F6CB
:105750006A14A14200D100BF0A1201249440A3B2EE
:10576000DC43048010BD00000038014000440040CC
:1057700000480040004C00400050004010B5044676
:10578000FE48844208D10121C014FFF7A9FD002181
:10579000E014FFF7A5FDC4E0B4F1804F08D101216A
:1057A0000846FFF7AAFD00210120FFF7A6FDB8E09B
:1057B000F348844208D101210220FFF79EFD002119
:1057C0000220FFF79AFDACE0EE48844208D10121A7
:1057D0000420FFF792FD00210420FFF78EFDA0E0DA
:1057E000E948844208D101210820FFF786FD002105
:1057F0000820FFF782FD94E0E448844208D10121AB
:105800001020FFF77AFD00211020FFF776FD88E0D9
:10581000DF48844208D101212020FFF76EFD0021DE
:105820002020FFF76AFD7CE0DA48844208D101219C
:105830004014FFF755FD00216014FFF751FD70E0A3
:10584000D548844209D10121C804FFF749FD002150
:105850004FF40020FFF744FD63E0D048844209D1B3
:1058600001210805FFF73CFD00214FF48010FFF7F0
:1058700037FD56E0CA48844209D101214805FFF7A7
:105880002FFD00214FF40010FFF72AFD49E0C54825
:10589000844208D101214020FFF72FFD0021402044
:1058A000FFF72BFD3DE0C048844208D10121802054
:1058B000FFF723FD00218020FFF71FFD31E0BB48EB
:1058C000844208D101218015FFF717FD0021A015A2
:1058D000FFF713FD25E0B648844209D101210804F1
:1058E000FFF7FEFC00214FF48030FFF7F9FC18E0D1
:1058F000B048844209D101214804FFF7F1FC00219E
:105900004FF40030FFF7ECFC0BE0AB48844208D1C9
:1059100001218804FFF7E4FC00214FF48020FFF709
:10592000DFFC10BD00220288944B98420ED0994BA8
:1059300098420BD0B0F1804F08D0914B984205D0DF
:10594000904B984202D0904B984204D14FF68F73FF
:105950001A404B881A438D4B984207D08C4B984283
:1059600004D04FF6FF431A40CB881A4302808B883D
:1059700083850B880385814B98420BD0854B9842D9
:1059800008D08B4B984205D08A4B984202D08A4B64
:10599000984201D10B7A038601238382704770B548
:1059A000002400220023058C4FF6FE763540058446
:1059B000028C8388048B4FF68F752C40B51E2C40CB
:1059C0000D882C43751E2A400D892A434D882A4391
:1059D0006A4DA8420BD06F4DA84208D0744DA84222
:1059E00005D0744DA84202D0734DA84213D14FF692
:1059F000F7752A404D892A434FF6FB752A408D885A
:105A00002A434FF6FF652B404FF6FF552B408D89FB
:105A10002B43CD892B4383800483CD8885860284E4
:105A200070BD70B5002400220023058C4FF6EF7680
:105A300035400584028C8388048B48F6FF752C4022
:105A40004FF6FF452C400D884FF6FF7606EA0525F8
:105A50002C434FF6DF752A400D8906EA05152A43C7
:105A60004D8806EA05152A43444DA84202D0494D07
:105A7000A8421DD14FF67F752A404D894FF6FF761B
:105A800006EA05152A434FF6BF752A408D8806EAB7
:105A900005152A434FF6FF352B404FF2FF752B407B
:105AA0008D8906EA85052B43CD8906EA85052B43BA
:105AB00083800483CD880587028470BD70B500247F
:105AC00000220023058C4FF6FF6635400584028CCA
:105AD0008388848B4FF68F752C404FF6FC752C40D5
